:020000040800F2
:10000000A0BC01209D010008C5390008C7390008BF
:10001000CB390008CF390008D339000800000000B0
:10002000000000000000000000000000D7390008B8
:10003000D939000800000000DB390008DD3900086C
:10004000B7010008B7010008B7010008B7010008B0
:10005000B7010008B7010008B7010008B7010008A0
:10006000B7010008B7010008B7010008B701000890
:10007000B7010008B7010008B7010008B701000880
:10008000B7010008172F0008B7010008B7010008E2
:10009000B7010008B7010008B7010008B701000860
:1000A000B7010008B7010008B7010008B701000850
:1000B000B7010008DD2D0008B7010008B7010008EE
:1000C000B7010008B7010008B7010008B701000830
:1000D000B7010008B7010008F12B00080131000842
:1000E000B7010008B7010008B7010008B701000810
:1000F000B7010008B7010008B7010008B701000800
:10010000B7010008B7010008B7010008B7010008EF
:10011000B7010008B7010008B7010008B7010008DF
:10012000B7010008B7010008B7010008B7010008CF
:10013000B7010008B7010008B7010008B7010008BF
:10014000B7010008B7010008B7010008B7010008AF
:10015000B7010008B7010008B7010008B70100089F
:10016000B7010008B7010008B7010008B70100088F
:10017000B7010008B7010008B7010008B70100087F
:10018000B7010008B7010008DFF80CD003F08AFFC0
:1001900000480047AD370008A0BC01200648804752
:1001A00006480047FEE7FEE7FEE7FEE7FEE7FEE75C
:1001B000FEE7FEE7FEE7FEE7BB3A0008890100081C
:1001C00070B504460025FE48008810F4004F0BD09F
:1001D0000020FB490988C1F30E01FA4A5054214618
:1001E000104603F015FD0546284670BD2DE9F04187
:1001F00006460D46144600270020F1490880314686
:10020000F1A002F091FDE5B1DCB10FE0012003F0B7
:1002100013F8EB48008810F4004F07D02846FFF78A
:10022000CFFF00B106E00020E5490880601E80B2E3
:100230000400EBD100BF24B93146E5A003F0D4FFA0
:1002400001273846BDE8F0811CB54FF4E13002F0DB
:1002500013FD01224021E24800F0A0FF002040F2FF
:10026000C451E04BDE4A121DCDE900105106DE48B4
:1002700002F0DAFD01228021D94800F08FFF012031
:100280006421DA4BD64A121DCDE90010C106D648CA
:10029000183002F0C9FD02F029FE10E0D4480078C1
:1002A000401CD34908700A2002F0C6FFD0480078ED
:1002B000142804DDCFA003F097FF01201CBD2822E5
:1002C000D2A1D3A0FFF792FF0028E7D100BFF5E746
:1002D00010B50446BA48008810F4004F0ED0002034
:1002E000B7490988C1F30E01B64A50541146C9A056
:1002F00003F07AFF14B10020B149088010BD2DE948
:10030000F04106460D46144600270020AC490880FF
:100310003146C0A002F008FDE5B1DCB10FE00120DC
:1003200002F08AFFA648008810F4004F07D0284644
:10033000FFF746FF00B106E00020A1490880601EDB
:1003400080B20400EBD100BF24B93146B2A003F063
:100350004BFF01273846BDE8F08170B50024002529
:100360006422AAA1AFA0FFF741FF0BE0002094494F
:100370000880601CC4B20A2002F05EFFC82C01DDB8
:10038000012504E0AAA0FFF71BFF0028EED000BF64
:10039000284670BD70B50024002564229BA1A6A04C
:1003A000FFF724FF642299A1A7A0FFF71FFF0BE02E
:1003B000002083490880601CC4B20A2002F03CFF80
:1003C000C82C01DD012504E099A0FFF7F9FE002803
:1003D000EED000BF284670BD10B59DA002F0A4FC71
:1003E0004FF4FA7002F028FF142288A188A0FFF7CA
:1003F000FDFE10BD10B5642284A196A0FFF7F6FEA5
:1004000010BD10B50024642295A196A0FFF7EEFE62
:1004100098A0FFF7D5FE04460020694908800CB17A
:10042000E07910BD0120FCE770B5002400253222E0
:1004300076A192A0FFF7DAFE93A0FFF7C1FE054672
:1004400000205F49088028782B2800D0012420460E
:1004500070BD70B504460025002632226BA18CA029
:10046000FFF7C4FE10B10020207070BD8BA0FFF715
:10047000A7FE054689A1681C03F0CAFB06460020BA
:1004800030706A1C63A1204603F0BEFE00204C4978
:10049000088000BFE9E73EB500242021002002F0DB
:1004A000C4FF044601217E4800680623CDE900010F
:1004B0007C4802687C4801687CA003F095FE00BF80
:1004C000642252A185A0FFF791FE0028F8D13222C4
:1004D0004EA185A0FFF78AFE32224CA187A0FFF72C
:1004E00085FE012000210622CDE9002102906D4801
:1004F00003686D4886A10268204603F085FE6422E9
:1005000042A12046FFF772FE00202D4908802146B7
:1005100002F07BFF3EBD70B500250024002620219F
:10052000002002F082FF05462021002002F07DFF1E
:1005300004462021002002F078FF0646142233A151
:100540007BA0FFF753FE7CA0FFF73AFE05462EA1E5
:10055000681C03F05DFB04460020207029467AA049
:1005600003F042FE14227CA17EA0FFF73FFE3CA0D8
:10057000FFF726FE0546687831387D4A52F820108C
:100580007CA003F031FE64227EA180A0FFF72EFE46
:1005900042A0FFF715FE054640A1681C03F038FB9A
:1005A0000446264600202070691C7BA003F01CFE38
:1005B0003AA1701C03F02CFB054638A1681CF3E03F
:1005C000560000202C01002025730D0A00000000B9
:1005D000257320CFECD3A6B3ACCAB10D0A0000003E
:1005E0000044004090090020886002402C0900204F
:1005F0004400002077696669C4A3BFE9B4AEBFDADE
:10060000CDA8D0C5D2ECB3A30D0A00004F4B00001B
:10061000415400002573000025732020B3ACCAB1FB
:100620000D0A000041542B524553544F52450000CF
:10063000726561647900000041542B435741555461
:100640004F434F4E4E3D300041542B525354000007
:100650002B2B2B0041542B435751415000000000DD
:100660003A00000041542B434950535441545553D0
:10067000000000005354415455533A0041542B4359
:10068000574A41503F0000002B43574A41503A001F
:1006900041542B4349505354413F00002200000075
:1006A00030000020140000201000002073736964E3
:1006B0003A2573207061737377643A2573206368F9
:1006C0003A25642065636E3A2573206D61785F6C0E
:1006D000696E6B3A25640D0A0000000041542B43FB
:1006E000574D4F44453D320041542B4357444843F6
:1006F000505F4445463D302C3100000041542B43AF
:100700005744484350535F4445463D300000000085
:1007100041542B43575341505F4445463D22257376
:10072000222C222573222C25642C25642C25640080
:1007300041542B474D52000053444B207665727351
:10074000696F6E3A00000000B9CCBCFEB0E6B1BEE5
:100750003A25730D0A0000002B43574D4F44453A8C
:100760000000000041542B43574D4F44453F0000CB
:1007700018000020CDF8C2E7C4A3CABD3A25730D06
:100780000A0000002B43575341503A0041542B4379
:10079000575341503F00000041505F53534944BA02
:1007A000C53A25730D0A000003F032FA04462646C6
:1007B00000202070012002F03FFD691C5EA003F0C4
:1007C00013FD61A1701C03F023FA05465EA1681CAD
:1007D00003F01EFA044600202070691C5BA003F0A1
:1007E00003FD607830385C4A52F820105BA003F0BB
:1007F000FBFC00205D490880294602F006FE2146E8
:10080000002002F002FE3146002002F0FEFD70BD25
:1008100010B56422AFF20C2155A0FFF7E7FC64226B
:10082000AFF2182155A0FFF7E1FC642002F004FDAF
:100830006422AFF2282155A0FFF7D8FC10BD10B5F7
:100840006422AFF2382156A0FFF7D0FC00204749C0
:10085000088010BD10B5002400BFFFF7D9FF54A0D9
:1008600003F0C2FC20E00020404908800A2002F08A
:10087000E3FC601C84B241F2707094FBF0F100FB69
:10088000114028B94AA003F0AFFCFFF7D8FFE4E716
:100890004EF66020844207DD4EA003F0A5FCFFF772
:1008A000CEFF0024012010BD4FA0FFF789FC20B926
:1008B00051A0FFF785FC0028D5D052A003F094FC8E
:1008C000FFF7BDFF0020EEE770B5044600250026C7
:1008D0006422AFF2C82150A0FFF788FC6422AFF277
:1008E000D42150A0FFF782FC224652A1284603F0F3
:1008F0008BFC6422AFF2EC212846FFF777FC00B1B5
:100900000126304670BD10B5044641F288324EA132
:100910004FA0FFF76BFC05E00A2002F08DFC0020E1
:1009200012490880AFF21C30FFF74AFC0028F3D1CF
:100930002046FFF745FC10BD41505FC3DCC2EB3AD7
:1009400025730D0A000000002C000000CDA8B5C0E2
:10095000BAC53A25730D0A0030000020BCD3C3DCB1
:10096000B7BDCABD3A25730D0A000000560000202D
:1009700041542B43574D4F44453D310041542B4387
:10098000574155544F434F4E4E3D310041542B4338
:10099000575354415254534D4152543D330000007B
:1009A00041542B435753544F50534D415254000020
:1009B000B5C8B4FD736D617274636F6E666967204C
:1009C000C5E4D6C377696669D5CBBAC5C3DCC2EBCB
:1009D0000D0A0000736D617274636F6E666967CA99
:1009E000A7B0DC0D0A0000005749464920434F4E8E
:1009F0004E454354000000005749464920474F5494
:100A000020495000736D617274636F6E666967B3DD
:100A1000C9B9A60D0A00000041542B4349504D5559
:100A2000583D310041542B4349505345525645528D
:100A30003D30000041542B434950534552564552D6
:100A40003D312C25730000002B43574C41503A0098
:100A500041542B43574C4150000000002DE9F04118
:100A600005460E460027B84600242021002002F04B
:100A7000DCFC0746334665482946026864A003F05B
:100A8000B3FB06E0601CC4B2142C02DD4FF0010879
:100A900036E04FF4FA7264A164A0FFF7A7FB0028C8
:100AA000F0D133462A4664A1384603F0ADFB06E098
:100AB000601CC4B2142C02DD4FF0010820E041F2AA
:100AC000883262A13846FFF791FB0028F0D16420FC
:100AD00002F0B2FB06E0601CC4B2142C02DD4FF041
:100AE00001080DE04FF47A724FA15BA0FFF77EFB87
:100AF0000028F0D15C490880394602F086FC00BF2E
:100B00004046BDE8F0812DE9FF4104460D461646FA
:100B10000020009001900290039000278046202141
:100B200002F083FC0746002C20D150A003F05CFBB0
:100B300053A003F059FB33462A4657A1384603F029
:100B400063FBC82002F078FB142237A159A0FFF7FD
:100B50004DFBC82002F070FB00BF4FF4FA7232A1C7
:100B60003846FFF743FB0028F7D13DE054A003F0DF
:100B70003BFB012C19D159A003F036FB14222AA10A
:100B80004CA0FFF733FB33462A465BA1384603F0FF
:100B90003BFB02E05FA003F027FBC82222A13846FE
:100BA000FFF724FB0028F5D11EE05DA003F01CFB3D
:100BB00032221DA161A0FFF719FB322002F03CFB9D
:100BC000324661A1384603F01FFB642216A1384665
:100BD000FFF70CFB2A4661A1384603F015FB64229F
:100BE00011A13846FFF702FB6846FFF732FC324698
:100BF00069465EA003F0F8FA00201B4908803946D8
:100C000002F003FC404604B0BDE8F081080000207B
:100C1000CEDECFDFB2CECAFDCEAA3A25732C257325
:100C20002C25730D0A0000004F4B000041542B434C
:100C3000574D4F44453D310041542B43574A415095
:100C40003D222573222C2225732200005749464954
:100C500020474F542049500041542B43574155548D
:100C60004F434F4E4E3D31005600002057494649F4
:100C70002D53544120756470206D6F64650D0A001A
:100C8000D5FDD4DAC5E4D6C3C4A3BFE92CC7EBC9EC
:100C9000D4B5C82E2E2E000041542B434950535436
:100CA0004152543D22554450222C222573222C259A
:100CB0007300000041542B4349504D55583D3000BE
:100CC000D5FDD4DAC5E4D6C3C4A3BFE92CC7EBC9AC
:100CD000D4B5C82E2E2E0D0A0000000057494649F3
:100CE0002D535441207463705F636C69656E74208A
:100CF0006D6F64650D0A000041542B4349505354F5
:100D00004152543D22544350222C222573222C253B
:100D100073000000C1ACBDD3544350CAA7B0DC007F
:100D2000574946492D535441207463705F7365726F
:100D3000766572206D6F64650D0A000041542B4387
:100D400049504D55583D310041542B43495053456E
:100D5000525645523D312C257300000041542B431F
:100D6000495053544F3D2573000000004950B5D8F9
:100D7000D6B73A257320B6CBBFDA3A25730D0A00F1
:100D800033490143334A1160704770B50021002395
:100D90000F22C47824B32F4C246804F4E064C4F513
:100DA000E064C4F30721C1F10404E3B20A414478CA
:100DB0009C40E1B28478144021430C07210E264C5C
:100DC00005786155047804F01F050124AC400578CE
:100DD0006D114FF0E02606EB8505C5F8004109E0EE
:100DE000047804F01F040125A5401C4C06787611F8
:100DF00044F8265070BD1A4A0A400243154B1B1F87
:100E00001A60704739B1134A121D12680243114B20
:100E10001B1D1A6006E00F4A121D126882430D4B1B
:100E20001B1D1A607047042808D14FF0E0210969A2
:100E300041F004014FF0E022116107E04FF0E021A2
:100E4000096921F004014FF0E022116170470000B0
:100E50000000FA050CED00E000E400E080E100E0B5
:100E600080FFFF1F10B50446FA48844208D10121D3
:100E7000102001F0FCFA0021102001F0F8FA57E0F0
:100E8000F548844209D10121480401F0DFFA00212C
:100E90004FF4003001F0DAFA4AE0F048844209D118
:100EA0000121880401F0D2FA00214FF4802001F0E2
:100EB000CDFA3DE0EA48844209D10121C80401F09D
:100EC000C5FA00214FF4002001F0C0FA30E0E548F7
:100ED000844209D10121080501F0B8FA00214FF43C
:100EE000801001F0B3FA23E0DF48844208D10121E9
:100EF000202001F0BCFA0021202001F0B8FA17E010
:100F0000DA48844209D10121880701F09FFA0021C3
:100F10004FF0804001F09AFA0AE0D548844207D1A8
:100F20000121400501F092FA0021600501F08EFADE
:100F300010BD2DE9FF4705460E460024A14600BF1F
:100F4000A046B08900B100BF2C8A24F44054F08838
:100F500004432C82AC8941F20C608443B08831890F
:100F60000843718908430443AC81AC8A24F440747B
:100F7000B0890443AC82684601F0F9F8B54885426F
:100F800002D0B948854202D1DDF80C9001E0DDF8CD
:100F90000890A88910F4004F08D009EBC90000EBB5
:100FA000091031684900B0FBF1F707E009EBC9000F
:100FB00000EB091031688900B0FBF1F76420B7FB42
:100FC000F0F004012009642101FB1078A88910F4D5
:100FD000004F08D0322000EBC800B0FBF1F000F069
:100FE0000700044308E0322000EB08106421B0FB46
:100FF000F1F000F00F0004432C81BDE8FF874FF4AF
:101000001651016000218180C18001810C21418144
:1010100000218181704710B502460020108A20F41B
:1010200070600B884C8823438C882343CC882343EF
:101030001843108210BD0021018041808180C18051
:10104000704721B1828942F40052828104E0828992
:101050004DF6FF731A4082817047028B02F47F4283
:101060000283028B0A430283704721B1828942F4D2
:101070000042828103E08289C2F30E0282817047BE
:1010800021B1828A42F40062828204E0828A4FF2B5
:10109000FF731A4082827047C1F308028280704752
:1010A00001468888C0F308007047028A4FF6F07343
:1010B0001A400282028A0A430282704721B1828961
:1010C00042F00202828104E082894FF6FD731A40E9
:1010D0008281704782894FF2FF731A408281828930
:1010E0000A4382817047028A4FF6DF731A400282F8
:1010F000028A0A430282704721B1028A42F4804286
:10110000028204E0028A4BF6FF731A4002827047A3
:10111000818941F001018181704721B1828A42F0C9
:101120000802828204E0828A4FF6F7731A408282B4
:101130007047028BD2B20283028B42EA0122028301
:10114000704721B1828A42F02002828204E0828AC2
:101150004FF6DF731A408282704721B1828A42F0D3
:101160001002828204E0828A4FF6EF731A40828274
:101170007047828A4FF6FB731A408282828A0A4342
:101180008282704721B1828A42F00202828204E0A8
:10119000828A4FF6FD731A40828270471AB1838AA1
:1011A0000B43838202E0838A8B4383827047F0B5CE
:1011B00003460024002600250020A1F510676A3FA1
:1011C00000D100BF1846C1F3421401F01F060127E9
:1011D00007FA06F5012C01D10C3004E0022C01D1F4
:1011E000103000E014301AB107682F43076002E0A6
:1011F0000768AF430760F0BD02460020B1F5007FED
:1012000000D100BF13880B4201D0012000E0002074
:10121000704701F40072B2F5007F00D100BFCA43ED
:101220000280704770B5024600240023002500208C
:10123000A1F510666A3E00D100BFC1F3421501F06E
:101240001F03012606FA03F3012D13D196893340BB
:1012500017E000000010014000440040004800403A
:10126000004C004000500040001401400078004055
:10127000007C0040022D02D1168A334001E0968A9C
:1012800033400C12012606FA04F41688344013B1D8
:101290000CB1012000E0002070BD10B50022002339
:1012A000A1F510646A3C00D100BF0A1201249440E9
:1012B000A3B2DC43048010BD10B50446FE4884424E
:1012C00008D10121084601F0D2F80021012001F0E7
:1012D000CEF89DE0B4F1804F08D10121084601F01D
:1012E000B5F80021012001F0B1F891E0F348844203
:1012F00008D10121022001F0A9F80021022001F00B
:10130000A5F885E0EE48844208D10121042001F0CF
:101310009DF80021042001F099F879E0E948844221
:1013200008D10121082001F091F80021082001F0E6
:101330008DF86DE0E448844208D10121102001F0CD
:1013400085F80021102001F081F861E0DF48844237
:1013500008D10121202001F079F80021202001F09E
:1013600075F855E0DA48844208D10121022001F0E5
:101370007EF80021022001F07AF849E0D548844245
:1013800009D10121080401F072F800214FF48030E6
:1013900001F06DF83CE0D048844209D101214804B5
:1013A00001F065F800214FF4003001F060F82FE003
:1013B000CA48844209D10121880401F058F800216B
:1013C0004FF4802001F053F822E0C548844208D150
:1013D0000121402001F03AF80021402001F036F8C8
:1013E00016E0C048844208D10121802001F02EF887
:1013F0000021802001F02AF80AE0BB48844207D18E
:101400000121801501F022F80021A01501F01EF83D
:1014100010BD00220288A84B98420ED0AC4B9842D7
:101420000BD0B0F1804F08D0A44B984205D0A44B0C
:10143000984202D0A34B984204D14FF68F731A40C2
:101440004B881A43A04B984207D0A04B984204D037
:101450004FF6FF431A400B891A4302804B68C36260
:101460000B880385944B984202D0994B984201D146
:101470008B7A03860123838270474FF0FF314160EE
:101480000021018001814180817270470185828243
:1014900070470A46002101884FF68F7319401143A7
:1014A0000180704741627047C16270470146486AD7
:1014B00070470146088D704721B1028842F0020250
:1014C000028004E002884FF6FD731A4002807047E4
:1014D00021B1028842F00402028004E002884FF643
:1014E000FB731A400280704721B1028842F08002EB
:1014F000028004E002884FF67F731A400280704732
:1015000002884FF6F7731A40028002880A4302806D
:10151000704702884FF6FF431A40028002880A4350
:101520000280704721B1028842F00102028004E08B
:1015300002884FF6FE731A400280704770B500248F
:1015400000220023058C4FF6FE7635400584028C80
:101550008388048B4FF68F752C40B51E2C400D8868
:101560002C43751E2A408D892A434D882A43524DAB
:10157000A84202D0564DA84213D14FF6F7752A4023
:10158000CD892A434FF6FB752A408D882A434FF6B2
:10159000FF652B404FF6FF552B400D8A2B434D8A9C
:1015A0002B43838004838D684563028470BD70B5CE
:1015B000002400220023058C4FF6EF763540058489
:1015C000028C8388048B48F6FF752C404FF6FF454C
:1015D0002C400D884FF6FF7606EA05252C434FF682
:1015E000DF752A408D8906EA05152A434D8806EAEB
:1015F00005152A43304DA84202D0354DA8421DD1D1
:101600004FF67F752A40CD894FF6FF7606EA05151D
:101610002A434FF6BF752A408D8806EA05152A43EE
:101620004FF6FF352B404FF2FF752B400D8A06EA2F
:1016300085052B434D8A06EA85052B438380048369
:101640008D688563028470BD70B50024002200237C
:10165000058C4FF6FF6635400584028C8388848BA9
:101660004FF68F752C404FF6FC752C400D882C439F
:101670004FF6FF552A408D894FF6FF7606EA05257D
:101680002A434D8806EA05252A430B4DA84202D07D
:101690000F4DA84238D14FF2FF752A40CD894FF641
:1016A000FF7606EA05252A434FF6FF352A408D8846
:1016B00006EA05252A4319E0000001400004004025
:1016C00000080040000C00400010004000140040E2
:1016D0000004014000400140004401400048014036
:1016E00000180040001C0040002000404EF6FF752E
:1016F0002B404DF6FF752B400D8A06EA05152B434E
:101700004D8A06EA05152B43838084838D68C56363
:10171000028470BD70B5002200230024058C4EF6B3
:10172000FF7635400584038C8488828B48F6FF75EC
:101730002A404FF6FF452A400D884FF6FF7606EA0D
:1017400005252A434DF6FF752B408D8906EA0535A0
:101750002B434D8806EA05352B43FE4DA84202D0A7
:10176000FD4DA84208D14BF6FF752C400D8A4FF66F
:10177000FF7606EA85152C43848082838D68056494
:10178000038470BD0021018041808180816081815E
:10179000C18101824182704770B503460020002458
:1017A0001846183001258D40ACB21D8CA5431D8410
:1017B00009B108290AD100EB610005684FF68F7660
:1017C000354005600568154305600FE00D1FC5F342
:1017D0004E052844056848F6FF76354005600568E3
:1017E0004FF6FF7606EA02263543056070BD416379
:1017F000704781637047C1637047016470470A4650
:101800000021018B4FF68F731940114301837047FC
:101810000A460021018B48F6FF7319404FF6FF730B
:1018200003EA02231943018370470A460021818B92
:101830004FF68F7319401143818370470A46002188
:10184000818B48F6FF7319404FF6FF7303EA0223BA
:101850001943818370470A460021018B4FF6F773C5
:1018600019401143018370470A460021018B4FF252
:10187000FF7319404FF6FF7303EA022319430183F4
:1018800070470A460021818B4FF6F77319401143C8
:10189000818370470A460021818B4FF2FF73194004
:1018A0004FF6FF7303EA02231943818370470A4608
:1018B0000021018B4FF6FB731940114301837047E0
:1018C0000A460021018B4FF6FF3319404FF6FF7394
:1018D00003EA02231943018370470A460021818BE2
:1018E0004FF6FB7319401143818370470A4600216C
:1018F000818B4FF6FF3319404FF6FF7303EA022343
:101900001943818370470A460021018B4FF67F738C
:1019100019401143018370470A460021018BC1F32E
:101920000E014FF6FF7303EA022319430183704748
:101930000A460021818B4FF67F7319401143818342
:1019400070470A460021818BC1F30E014FF6FF73E9
:1019500003EA02231943818370470A460021018C60
:101960004FF6FD7319401143018470470A46002168
:10197000018C4FF6F77319401143018470470A46F2
:101980000021018C4FF6DF7319404FF6FF7303EA15
:1019900002131943018470470A460021018C4FF657
:1019A0007F7319404FF6FF7303EA02131943018452
:1019B00070470A460021018C4FF6FF5319404FF63D
:1019C000FF7303EA02231943018470470A4600218A
:1019D000018C4FF2FF7319404FF6FF7303EA0223A5
:1019E0001943018470470A460021018C4DF6FF73AC
:1019F00019404FF6FF7303EA02331943018470471D
:101A000030B5002301248C40A3B2048C9C43048491
:101A1000048C02FA01F5ADB22C43048430BD30B51C
:101A2000002304248C40A3B2048C9C430484048CC3
:101A300002FA01F5ADB22C43048430BD828B4FF223
:101A4000FF331A408283828B4FF6FF7303EA012330
:101A50001A4382837047F0B50C46154600210022D8
:101A60000026078C4EF6FF7C07EA0C070784818B63
:101A7000028C4FF6FF7707EA043640F6FF473940FD
:101A80004FF6FF7707EA052739434FF6FF7707EA56
:101A90000337394345F6FF773A4046F480573A43D7
:101AA00081830284F0BD828B4FF6F3731A408283E8
:101AB000828B0A4382837047F0B50C46154600219D
:101AC00000220026078C4FF6FF6C07EA0C070784FC
:101AD000818B028C4FF6FF7707EA04264FF60C77CE
:101AE00039404FF6FF7707EA03172F4339434FF288
:101AF000FF573A4046F480773A4381830284F0BD31
:101B0000028B4FF2FF331A400283028B4FF6FF73B2
:101B100003EA01231A4302837047F0B50C461546C9
:101B2000002100220026078C4FF6EF7C07EA0C0705
:101B30000784018B028C4FF6FF7707EA041640F604
:101B4000FF4739404FF6FF7707EA033739434FF62F
:101B5000FF7703E0000001400004014007EA052789
:101B600039434FF65F773A4046F010073A43018316
:101B70000284F0BD028B4FF6F3731A400283028B8E
:101B80000A4302837047F0B50C4615460021002237
:101B9000068C4FF6FE773E400684018B028C4FF692
:101BA0000C7631407E1C06EA03162E4331434FF675
:101BB000F576324044F00106324301830284F0BDE1
:101BC00070B505460C46208850B92389A2886188E3
:101BD0002846FFF7D8FFE1882846FFF7CBFF25E02E
:101BE000208804280AD12389A28861882846FFF723
:101BF00094FFE1882846FFF783FF17E02088082834
:101C00000AD12389A28861882846FFF755FFE18819
:101C10002846FFF748FF09E02389A2886188284603
:101C2000FFF719FFE1882846FFF708FF70BD002184
:101C300001804180012181800021C18001817047A4
:101C40002DE9F04105460C4600260127608808B9B9
:101C5000022600E00026A088012801D1022700E02A
:101C600001272088A0B92389A28861882846FFF728
:101C70008AFFE1882846FFF77DFF23893A463146EF
:101C80002846FFF74AFFE1882846FFF739FF13E0AF
:101C90002389A28861882846FFF73FFFE18828460C
:101CA000FFF72EFF23893A4631462846FFF76BFFA0
:101CB000E1882846FFF75EFFBDE8F0810146486BEA
:101CC00070470146886B70470146C86B70470146F4
:101CD000086C70470A884B881A438B881A43CB8854
:101CE0001A430B891A434B891A438B891A43A0F86C
:101CF000442070470021018041808180C1800181A2
:101D000041818181704731B1B0F8442042F40042F2
:101D1000A0F8442005E0B0F84420C2F30E02A0F879
:101D20004420704721B1828842F00402828004E09E
:101D300082884FF6FB731A408280704721B18288F7
:101D400042F00102828004E082884FF6FE731A405E
:101D5000828070471AB183890B43838102E08389B3
:101D60008B43838170478182704702460020138A2B
:101D70000B4201D0012000E000207047CA430282DC
:101D8000704730B50246002000230024158A05EA7A
:101D90000103958905EA010413B10CB1012000E0AB
:101DA000002030BDCA430282704741EA0203A0F816
:101DB000483070471AB183890B43838102E08389DD
:101DC0008B438381704721B1828842F00802828070
:101DD00004E082884FF6F7731A40828070470189C9
:101DE0004FF6F8721140018170470A4600210189BF
:101DF0004FF68F73194011430181704730B5044687
:101E00000D4629462046FFF7F0FF208940F00700E5
:101E1000208130BD2DE9F04104460D4616461F468F
:101E2000602D06D13B46012231462046FFF775FE64
:101E300005E03B46012231462046FFF7A4FE294635
:101E40002046FFF7D2FF208940F007002081BDE83F
:101E5000F08130B50C4600210189C9B24FF6FF75FB
:101E600005EA0325154325432943018130BD2DE9AA
:101E7000F04105460E4617469846002443463A462A
:101E800031462846FFF7E5FF2C894FF6F8700440ED
:101E900044F007044FF68F70044044F070042C8126
:101EA000BDE8F081F0B504460D4616461F463B4698
:101EB000324629462046FFF7CCFF208940F4804077
:101EC0002081F0BD82884FF68F731A40828082880D
:101ED0000A438280704702894FF6F8731A400281E4
:101EE00002890A430281704702894FF67F731A40C4
:101EF000028102890A4302817047F0B50C461546FB
:101F00001E460021002200230189028B038C4FF61C
:101F1000F877394021434FF6FC473A4040F2011729
:101F20003A434FF6DD773B404FF6FF7707EA061757
:101F30002F433B43018102830384F0BD21B182889A
:101F400042F08002828004E082884FF67F731A405C
:101F500082807047A0F8501070470000F948006870
:101F600040F00100F74908600020F6490831086098
:101F7000F4480068F4490840F2490860F348091D34
:101F80000860F348EF4984310860F0481038091DB3
:101F90000860EC48006820F48020EA4908600020CE
:101FA000E8490C310860E7498C310860704700212E
:101FB000E44A921C117011460870704710B5014632
:101FC0000022002300204A11012A02D1DD4C23689F
:101FD00008E0022A03D1DB4C7034236802E0D94CBC
:101FE0007434236801F01F02012494401C4201D084
:101FF000012000E0002010BD38B500200090002432
:10200000002500BF3120FFF7D9FF05460098401C8E
:1020100000900098B0F5A04F01D0002DF2D03120F3
:10202000FFF7CCFF08B1012400E00024204638BDB2
:1020300001460020C34A106820F0F80040EAC100C1
:1020400010607047C349086070470021BD4A703274
:1020500011701170012802D004280AD104E0012176
:10206000B84A7032117005E00521B64A703211701D
:1020700000E000BF00BF7047B7490860704770B507
:10208000049C41EA82150126C6EB530645EA064543
:10209000054345EA0465AB4E361D356070BDAD495C
:1020A00008667047820142EA0172A64B84331A60C7
:1020B0007047A8498866704710B5830143EA0163F9
:1020C00043EA02739F4C8834236010BDA14908671E
:1020D0007047A049C864704702460020994B0833F6
:1020E000186820F0EC6042EA01031843954B08336E
:1020F0001860704702460020924B0833186820F0A1
:10210000784042EA010318438E4B08331860704749
:10211000014600208B4A0832106820F00300084373
:102120001060704787480830006800F00C00704766
:1021300001460020834A0832106820F0F00008436E
:1021400010607047014600207E4A0832106820F473
:10215000E05008431060704701460020794A083279
:10216000106820F4604040EAC10010607047F0B58C
:10217000002100220024022500260223714F083787
:102180003F6807F00C0121B1042905D0082937D197
:1021900005E0724F076036E0714F076033E0694F2A
:1021A0003F1D3F68C7F38056664F3F1D3F6807F0ED
:1021B0003F036EB16A4FB7FBF3F7DFF888C10CF14C
:1021C000040CDCF800C0CCF3881C07FB0CF40CE01A
:1021D000624FB7FBF3F7DFF86CC10CF1040CDCF8CD
:1021E00000C0CCF3881C07FB0CF4564F3F1D3F6822
:1021F000C7F301477F1C7D00B4FBF5F7076002E0E1
:10220000564F076000BF00BF4E4F08373F6807F0CA
:10221000F0010909534F7A5C0768D7404760494F7E
:1022200008373F6807F4E051890A4E4F7A5C4768E7
:10223000D7408760434F08373F6807F46041490B38
:10224000484F7A5C4768D740C760F0BD002100F472
:102250004072B2F5407F0AD13A4A0832116821F43F
:10226000F811414A02401143364A08321160354A9A
:1022700070321268C0F30B031A43324B70331A608A
:102280007047354944390860704733494039086020
:10229000704736490860704701460020294A8C3251
:1022A000106820F01F004A1E1043264A8C3210602E
:1022B000704701460020234A8C32106820F4F85001
:1022C0004A1E40EA02201F4A8C32106070470146C5
:1022D00000201C4A8C32106820F440100843106023
:1022E000704701460020174A8C32106820F44000E5
:1022F00008431060704701460020124A8C32106873
:1023000020F4403008431060704719490860704756
:1023100039B10C4A3032126802430A4B30331A602A
:1023200006E0084A303212688243064B30331A60A6
:102330007047F9B1034A343212680243014B343317
:102340001A601CE000380240FFFFF6EA103000245B
:102350000030002000004742800E47420024F40075
:1023600000127A0045000020FFFCFF0F5C0147428D
:10237000E01147428F4A126882438E4B1A607047C1
:1023800039B18C4A121D126802438A4B1B1D1A6018
:1023900006E0884A121D12688243864B1B1D1A6094
:1023A000704739B1834A0C3212680243814B0C33B7
:1023B0001A6006E07F4A0C32126882437D4B0C3370
:1023C0001A60704739B17B4A103212680243794B68
:1023D00010331A6006E0774A103212688243754B58
:1023E00010331A60704739B1724A243A12680243B6
:1023F000704B243B1A6006E06E4A243A126882430E
:102400006C4B243B1A60704739B16A4A203A126813
:102410000243684B203B1A6006E0664A203A126885
:102420008243644B203B1A60704739B1614A1C3AC1
:10243000126802435F4B1C3B1A6006E05D4A1C3A7F
:10244000126882435B4B1C3B1A60704739B1594A92
:10245000143A12680243574B143B1A6006E0554A7F
:10246000143A12688243534B143B1A60704739B1D7
:10247000504A103A126802434E4B103B1A6006E075
:102480004C4A103A126882434A4B103B1A6070471C
:1024900039B1484A1C3212680243464B1C331A6059
:1024A00006E0444A1C3212688243424B1C331A60D5
:1024B000704739B13F4A2032126802433D4B203306
:1024C0001A6006E03B4A203212688243394B2033BF
:1024D0001A60704739B1374A243212680243354BCB
:1024E00024331A6006E0334A243212688243314BA7
:1024F00024331A60704739B12E4A2C3212680243D5
:102500002C4B2C331A6006E02A4A2C321268824384
:10251000284B2C331A60704739B1264A3032126882
:102520000243244B30331A6006E0224A30321268EC
:102530008243204B30331A607047012808D11D496F
:102540003C31096841F008011A4A3C32116007E049
:1025500018493C31096821F00801164A3C321160E3
:10256000704739B1134A273A12780243114B273B7F
:102570001A7006E00F4A273A127882430D4B273B28
:102580001A7070470B484030006840F0807009496D
:1025900040310860704701460020064A283A126818
:1025A0000A4201D0012000E000207047014926398D
:1025B000087070473438024010B504469848844289
:1025C00008D101210846FFF70EFF00210120FFF787
:1025D0000AFF76E09348844208D101210220FFF7E8
:1025E00002FF00210220FFF7FEFE6AE08E488442CF
:1025F00008D101210420FFF7F6FE00210420FFF797
:10260000F2FE5EE08948844208D101210820FFF7EC
:10261000EAFE00210820FFF7E6FE52E084488442EB
:1026200008D101211020FFF7DEFE00211020FFF766
:10263000DAFE46E07F48844208D101212020FFF7DE
:10264000D2FE00212020FFF7CEFE3AE07A488442F5
:1026500008D101214020FFF7C6FE00214020FFF7EE
:10266000C2FE2EE07548844208D101218020FFF788
:10267000BAFE00218020FFF7B6FE22E070488442B7
:1026800008D101218015FFF7AEFE0021A015FFF74C
:10269000AAFE16E06B48844208D101214015FFF7DD
:1026A000A2FE00216015FFF79EFE0AE06648844204
:1026B00007D101210015FFF796FE00212015FFF735
:1026C00092FE10BDF0B50A4600210023002400BF91
:1026D0003DE0012505FA01F3156805EA03049C4273
:1026E00034D105684F000326BE40B5430560157917
:1026F0004E00B5400668354305601579012D02D0BE
:102700001579022D16D185684F000326BE40B543CA
:10271000856055794E00B5408668354385604568CB
:1027200001268E40B5434560456896798E40B6B225
:1027300035434560C5684F000326BE40B543C560BC
:10274000D5794E00B540C6683543C560491C10298F
:10275000BFD3F0BD4FF6FF710160002101714171DF
:102760008171C171704708B54FF480320092009AB0
:102770000A430092009AC261C161009AC261C269B3
:102780000092C269009208BD0246002013690B4204
:1027900001D0012000E0002070470146086980B2A6
:1027A00070470246002053690B4201D0012000E02F
:1027B000002070470146486980B270470183704726
:1027C000418370470AB1018300E041837047416152
:1027D000704742694A4042617047F0B500230024C7
:1027E0004D07ED0E02FA05F3CE1000F1200555F865
:1027F00026504E07F70E0F26BE40B543CF1000F10E
:10280000200646F82750CE1000F1200555F8265036
:1028100045EA0304CE1000F1200545F82640F0BD3E
:10282000000002400004024000080240000C024088
:10283000001002400014024000180240001C024038
:10284000002002400024024000280240016821F0DC
:10285000010101600021016041608160C16001618E
:1028600021214161DA49884204D13D21D84A103AF8
:1028700091608CE0D6491831884205D14FF47461DB
:10288000D34A103A916082E0D1493031884205D173
:102890004FF47411CE4A103A916078E0CC49483137
:1028A000884205D14FF07461C94A103A91606EE0D8
:1028B000C7496031884204D1C649C54A103AD1603F
:1028C00065E0C3497831884204D1C349C04A103A0F
:1028D000D1605CE0BE499031884204D1BF49BC4A16
:1028E000103AD16053E0BA49A831884205D14FF07F
:1028F0003D51B74A103AD16049E0B949884204D104
:102900003D21B74A083A116041E0B5491831884283
:1029100005D14FF47461B24A083A116037E0B0490A
:102920003031884205D14FF47411AD4A083A116034
:102930002DE0AB494831884205D14FF07461A84A77
:10294000083A116023E0A6496031884204D1A149C8
:10295000A34A121F11601AE0A1497831884204D1BC
:102960009D499F4A121F116011E09D499031884294
:1029700004D19A499A4A121F116008E09849A83177
:10298000884204D14FF03D51954A121F11607047A3
:1029900010B500220268934B1A40CC680B682343A1
:1029A0004C6923438C692343CC6923430C6A23433A
:1029B0004C6A23438C6A23434C6B23438C6B234325
:1029C0001A430260426922F00702D1E90B34234323
:1029D0001A4342610B6943604B6883608B68C36034
:1029E00010BD0021016041608160C16001614161F1
:1029F0008161C161016241628162C16201634163BF
:102A00008163704721B1026842F00102026003E075
:102A1000026822F001020260704721B1026842F4AC
:102A20000042026003E0026822F400420260704744
:102A300021B1026842F02002026003E0026822F045
:102A4000200202607047416070470146486880B2CA
:102A5000704722B1036843F40023036003E0036876
:102A600023F4002303600161704721B1026842F43E
:102A70008022026003E0026822F480220260704734
:102A80000AB1016100E0C1607047014600200A6898
:102A900012F4002F01D0012000E000207047014611
:102AA00000200A6812F0010F01D0012000E0002090
:102AB0007047014600204A6902F03800704730B57F
:102AC00003460A4600200024454DAB4202D240494D
:102AD000103901E04249103912F0005F01D04C6812
:102AE00000E00C68404D2C40144201D0012000E071
:102AF000002030BD02463A4B9A4202D23448103888
:102B000001E03748103811F0005F03D0364B0B401E
:102B1000C36002E0344B0B408360704710B511F086
:102B2000800F09D022B1436943F08003436103E081
:102B3000436923F08003436180290BD02AB10368E5
:102B400001F01E042343036004E0036801F01E0447
:102B5000A343036010BD70B5024600200024002589
:102B60001F4EB24202D21A4B103B01E01C4B103BED
:102B70001E4E314206D01E2606EAD124166806EA09
:102B8000040502E0566906F0800511F0005F01D0EF
:102B90005C6800E01C68144E34400C4202D00DB159
:102BA000012000E0002070BD02460D4B9A4202D287
:102BB0000748103801E00A48103811F0005F03D0D0
:102BC000094B0B40C36002E0074B0B40836070472A
:102BD000106002403D000020400F002000003D201A
:102BE000106402403F801CF07D0F7D0F3C0F3C0FB6
:102BF00010B500BF40F224415948FEF713FB0028EE
:102C000039D057480088C4B25548001D0088C4B266
:102C100000215448FFF7F6FE5348008810F4004F97
:102C200016D15048FFF711FF40F2C451081A4E491F
:102C300008800846008840F2C451884202DD0846F8
:102C400049490880484802884849494800F0CEFF71
:102C500048494448FFF74EFF40F2C4514148FFF74E
:102C6000F2FE01213F48FFF7CDFE3F48008840F4C7
:102C700000403D49088010BD10B588B004460121D0
:102C80000820FFF745FB01214804FFF78AFB344881
:102C9000FEF7E8F8072205213748FFF79EFD0722D7
:102CA00006213548FFF799FD6020059002208DF838
:102CB00018008DF8190000208DF81A0001208DF8F9
:102CC0001B0005A92C48FFF7FDFC01940020ADF87E
:102CD0000800ADF80A00ADF80C00ADF810000C20AB
:102CE000ADF80E0001A91E48FEF723F901211C488A
:102CF000FEF7A7F9012240F224411948FEF757FADE
:102D000026208DF81C0002208DF81D0003208DF870
:102D10001E0001208DF81F0007A8FEF736F80020DE
:102D20001149088008B010BD0FB438B505A800904F
:102D30001248009A049901F07BFA002000900F4895
:102D400000F078FF84B222460C490D4800F04EFF97
:102D500021460448183000F0B3F838BC5DF814FB85
:102D60000044004088600240560000209009002086
:102D70002C01002000080020000C0240C8000020A8
:102D80002C0900207FB505460C4601210220FFF7E3
:102D900008FB0295ADF804400020ADF80600ADF840
:102DA0000C0001A91E48FEF734FB012211461C4805
:102DB000FEF7D0FF01211A48FEF7B4FB1D208DF865
:102DC000000001208DF8010003208DF80200012091
:102DD0008DF803006846FDF7D8FF7FBD10B50121CF
:102DE0000F48FEF7CEFF012815D1032010E0411E49
:102DF0000C4A515C51B1411E515CFF2906D0411E65
:102E0000515C491ECAB2411E064B5A54411EC8B2FB
:102E10000028ECDC00BF01210148FEF7C3FF10BD14
:102E200000040040580000202DE9F0438FB0044614
:102E30000D4616461F46DDE916986F48844204D9B0
:102E400001218805FFF764FA03E001214805FFF737
:102E50005FFA2046FFF7FAFC00BF2046FFF71FFE8F
:102E60000028FAD1009501960297B8F1010F02D11E
:102E70004020039001E000200390CDF81090002046
:102E800005904FF48060069000200790089009900C
:102E90004FF480300A9000200B9003200C9000200B
:102EA0000D900E9069462046FFF772FDB8F1000FB5
:102EB00003D101212046FFF7A5FD0FB0BDE8F08347
:102EC00070B504460D4600212046FFF79BFD00BF6C
:102ED0002046FFF7E4FD0028FAD129462046FFF7F7
:102EE000B2FD01212046FFF78DFD70BD08B5112010
:102EF0008DF8000000208DF8010001208DF80200FF
:102F00008DF803006846FDF740FF012210213B4881
:102F1000FFF704FE08BD10B539493848FFF7CFFD6B
:102F200018B137493548FFF7E5FD10BD00B52DED67
:102F3000048B83B09FED330AB0EE408A01206421F8
:102F4000314B324ACDE90010C1062C484838FFF712
:102F50006BFF2D482EA10A680260898881802EA00F
:102F600001F042F9012280212848001FFEF716F9DE
:102F7000642122484838FFF7A3FF36E04FF0C051E4
:102F80001E484838FFF79BFD30B14FF0C0511B4839
:102F90004838FFF7AFFD29E018484838FFF755FDDE
:102FA00000EE100AB8EE400AB0EE408A9FED1E0A0D
:102FB000C8EE000AB7EE000A30EE600AB0EE408AB2
:102FC0009FED190A28EE000AB0EE408A18EE100AAA
:102FD00000F05AFE41EC100BB0EE409AF0EE609A11
:102FE00053EC192B11A001F0FFF8C7E700BF03B0A5
:102FF000BDEC048B00BD000000640240A0600240F4
:1030000000002020000000002C090020044800409F
:10301000746573740D0A00000D0A444D412044414B
:1030200054413A0D0A0000000000C842252E3266C5
:103030000D0A0000014600BF704700BF4A4A1288CF
:1030400012F0400FFAD0C2B2474B1B1D1A807047D6
:1030500010B588B0044601210420FFF759F9012179
:103060008804FFF79EF907220A214048FFF7B5FBC5
:1030700007220B213D48FFF7B0FB4FF4406006905C
:1030800002208DF81C008DF81D0000208DF81E0018
:1030900001208DF81F0006A93448FFF713FB0294A6
:1030A0000020ADF80C00ADF80E00ADF81000ADF842
:1030B00014000C20ADF8120002A92B48FDF739FFCF
:1030C00001212948FDF7BDFF012240F22441264895
:1030D000FEF76DF8012240F225512348FEF767F80C
:1030E00027208DF8040003208DF805008DF80600D8
:1030F00001208DF8070001A8FDF747FE08B010BDBC
:1031000070B500BF40F225511748FEF78BF8B0B1FB
:103110001548FDF7C5FFC4B215480088322808DA03
:10312000134801880088401C114A108011484454FB
:1031300005E00F48008840F400400D49088040F247
:1031400024410948FEF76EF860B107480088C5B20F
:103150000548001D0088C5B20548008840F40040BD
:103160000349088070BD000000480040000802408C
:103170005C000020540F002010B504466FF00400DE
:10318000FDF751FEE11704EB5171C1F3C701384A55
:1031900011701046007800EB4001C1EBC0104FF6F3
:1031A000FF7101EAC0003349088010BD0146304A72
:1031B00012784A434FF0E0235A6100229A611A467E
:1031C000126942F001021A6100BF4FF0E02210695B
:1031D00010F0010F02D010F4803FF6D04FF0E02243
:1031E000126922F001024FF0E0231A6100229A6175
:1031F000704701461F4A12884A434FF0E0235A6144
:1032000000229A611A46126942F001021A6100BF57
:103210004FF0E022106910F0010F02D010F4803F4F
:10322000F6D04FF0E022126922F001024FF0E023C5
:103230001A6100229A61704770B504464FF4077016
:1032400094FBF0F0C6B24FF4077094FBF0F100FB72
:10325000114085B205E04FF40770FFF7CAFF701EFA
:10326000C6B2002EF7D115B12846FFF7C2FF70BDD8
:10327000640000206600002070B503460C4603E0A1
:1032800014F8015B03F8015B1500A2F10102F7D10C
:1032900070BD30B5034601E003F8011B1400A2F134
:1032A0000102F9D130BD10B50446794951F8241016
:1032B0004A00784951F824000021FFF7EAFF7649D7
:1032C00051F8242073490C3951F824000021FFF7EC
:1032D000E0FF01216F480C30015510BD10B50146CB
:1032E0000023002207E06B4850F8210030F812005C
:1032F00000B15B1C521C664850F821009042F2D885
:1033000064205843624C54F82140B0FBF4F0C0B242
:1033100010BD2DE9F04704460F460025A9465D483B
:103320000C30005D20B95B4814380168204688479E
:103330001FB94FF0FF30BDE8F087584850F824001F
:10334000B7FBF0F6554850F82400B7FBF0F100FB4E
:10335000117000B1761C4E4850F82400451E20E044
:103360004C4850F8240030F8150010B909F1010953
:1033700001E04FF00009B14512D14FF0000808E01C
:10338000444850F8240005EB080220F8126008F1C8
:103390000108B045F4D3414850F824006843CAE717
:1033A0006D1E002DDCDA4FF0FF30C4E72DE9F0414F
:1033B00004460E4637480C30005D38B9354814389D
:1033C0000168204688470120BDE8F081324850F866
:1033D0002400B04217D9314850F82400B6FBF0F170
:1033E0002C4850F8240030F81120002507E0002375
:1033F000284850F824004F1920F817306D1C9542CA
:10340000F5DB0020E0E70220DEE770B505460C465C
:1034100004B970BD1F480C3850F82500261A3146F3
:103420002846FFF7C3FF00BFF3E770B504460E461A
:1034300031462046FFF76DFF0546681C00D170BD80
:1034400014480C3850F824002844F8E72DE9F041DE
:1034500004460F46164631462046FFF75AFF0546FA
:10346000681C01D1BDE8F0810A490C3951F82410DB
:10347000481932463946FFF7FFFE39462046FFF726
:10348000C4FF04480C3850F824002844EAE7000040
:10349000204B00087C000020384B00082C4B000813
:1034A00010B500230B80002208E0835C303B0C88C1
:1034B00004EB840403EB44030B80521C835C002B5D
:1034C000F3D110BD1CB501210820FEF721FF4FF4F8
:1034D000C040009001208DF8040000208DF8060007
:1034E00003208DF8050001208DF807006946CD48BE
:1034F000FFF7E8F84FF4C041CA48FFF75FF91CBD79
:1035000010B5C9480078262812D0292820D01FE0FD
:103510004FF40051C348FFF753F94FF48041C148BD
:10352000FFF74CF900BF2620BF490870322010BDBC
:103530004FF40051BB48FFF741F94FF48041B948BF
:10354000FFF73EF900BF2920B74908703220EEE7A7
:10355000DEE710B50446B54800785A2878D0202117
:103560000020FFF762FFB249086020210020FFF72A
:103570005CFFB0490860601EAF4A52F82010AFA04F
:1035800000F032FEC0E0B0A0FCF71AFE00284CD0DC
:10359000AFA0FCF715FE18B1B0A000F025FE41E089
:1035A000B2A0FCF70DFE18B1B2A000F01DFE39E08C
:1035B000B3480178B3A000F017FEB1480278B8A173
:1035C0009B48006800F020FE4FF47A72B9A1984839
:1035D0000068FCF70BFE0020B8490880601E964A80
:1035E00052F82010B6A0FFF79FFB12E00020B3496D
:1035F00008800A20FFF720FEB4480078401CB34939
:10360000087008460078142802DD0020087000E0E9
:1036100000BFAFA0FCF7D4FD0028E7D00020AE49E2
:10362000088000BF0020A5490880ACA0FCF7C8FDB9
:1036300038B193480178ABA000F0D6FD00209F4937
:10364000088000BF5A2079490870012010BDFFE7AB
:10365000ABA0FCF7B5FD18B3AAA1894800F0D8FAD1
:1036600073490860002009688870A7A17048006845
:10367000C01C00F0CDFA6F4908600020096808708E
:103680006C4803685B1C6A480268D21C0168491CCC
:103690009EA000F0A9FD0020884908808E4908807E
:1036A0008648008800282FD18B4800884EF660217C
:1036B000884205DA88480088401C8749088023E052
:1036C000FCF79FFE9A49087008460078322802D11C
:1036D00098A000F089FD96480078332802D19CA07C
:1036E00000F082FD92480078342802D19FA000F0BB
:1036F0007BFD8F480078352802D1A1A000F074FD31
:1037000000207549088000E03DE700BF4848016897
:103710000020FFF77AFE474801680020FFF775FE9A
:1037200000BF00BF002091E710B5994800789528A8
:103730003BD03AE09748008810F4004F2FD000208B
:103740009449088094A1954800F07CFA9449086057
:1037500091A1002000F076FA924908608EA1002025
:1037600000F070FA9049086090498F480068FFF7B0
:1037700097FE8B4800680078512802D1FCF72CFE98
:1037800007E08A4802888748016885480068FCF796
:103790002DFD0020FCF79CFD00204849088000BF5B
:1037A00095207B490870012010BDC3E7A820FFF7D2
:1037B000E3FC4FF4A060FDF7E3FAFFF783FE4FF45C
:1037C000E130FFF745FC42F2CF016320FFF7DAFA60
:1037D000FCF73AFD7648016876480068FDF73EF947
:1037E000754876A102680220FDF78DF919E074484A
:1037F000007828B90320FFF7ACFE7149087010E08B
:103800006F48407820B9FFF77BFE6D49487008E0AB
:103810006B48807820B9FFF787FF6949887000E01E
:1038200000BFE4E7000C02408C0000209C00002058
:103830009000002094000020240000202573B2E2B4
:10384000CAD40D0A00000000434F4E4E45435400B9
:10385000444953434F4E4E454354000077696669CF
:10386000C1ACBDD3B6CFBFAA0D0A00005749464927
:103870000000000077696669C1ACBDD30D0A000085
:103880002C010020BFCDBBA7B6CB256320C1ACC99E
:10389000CF544350B7FECEF1C6F70D0A000000002A
:1038A00041542B43495053454E4445583D25632CC4
:1038B000323000000D0A3E200000000056000020BB
:1038C0002573B2E2CAD40D0A5C3000009B000020D0
:1038D00053454E44204F4B0098000020434C4F531B
:1038E00045440000BFCDBBA7B6CB256320B6CFBFF4
:1038F000AA544350B7FECEF1C6F70D0A00000000EF
:103900002B4950442C0000003A000000CAD5B5BD38
:10391000BFCDBBA7B6CB257320CAFDBEDD2573D7AF
:10392000D6BDDA2CC4DAC8DD3A0D0A25730D0A00BB
:103930009A000020CDF8C2E7D5FDB3A32CCEB4BDCC
:10394000A8C1A2544350C1ACBDD30D0A0000000071
:103950003130B7D6D6D3CEB4CAD5B5BDBFCDBBA74F
:10396000B6CBD0C5CFA20D0A000000003130B7D6CB
:10397000D6D3CEDE544350C1ACBDD30D0A000000F7
:10398000CEB4C1ACBDD3CDF8C2E70D0A0000000033
:10399000AE0000205C0000202F000000540F00202B
:1039A000A0000020A4000020A8000020AC000020FF
:1039B0000C00002004000020000000203234300001
:1039C00058000020704700BFFEE700BFFEE700BFC1
:1039D000FEE700BFFEE77047704770477047000082
:1039E0000CB50020019000907548006840F48030CC
:1039F0007349086000BF7248006800F4003000900E
:103A00000198401C0190009818B90198B0F5A04F9A
:103A1000F1D16B48006810F4003F02D00120009003
:103A200001E0002000900098012845D16448403012
:103A3000006840F080506249403108606148006889
:103A400040F440405F4908605D48083000685C49C8
:103A5000083108600846006840F4004008600846E5
:103A6000006840F4A05008605748091F0860081F0C
:103A7000006840F08070091F086000BF504800686F
:103A800010F0007FFAD040F20570504908604C48B1
:103A90000830006820F003004949083108600846F2
:103AA000006840F00200086000BF45480830006828
:103AB00000F00C000828F8D10CBD10B5444800688F
:103AC00040F47000424908603D48006840F0010041
:103AD0003B49086000203A490831086038480068CE
:103AE0003C490840364908603B48091D0860081FEA
:103AF000006820F48020091F0860002030490C3144
:103B00000860FFF76DFF4FF00060314980390860B1
:103B100010BD70B500200022022300240221284D90
:103B200008352D6805F00C0020B1042806D00828BF
:103B300034D107E0294D2A4E356033E0294D284E17
:103B400035602FE01E4D2D1D2D68C5F380541C4D92
:103B50002D1D2D6805F03F0154B1224DB5FBF1F547
:103B6000174E361D3668C6F3881605FB06F209E0C7
:103B70001A4DB5FBF1F5124E361D3668C6F38816A0
:103B800005FB06F20E4D2D1D2D68C5F301456D1C7C
:103B90006B00B2FBF3F5124E356003E00F4D104E93
:103BA000356000BF00BF064D08352D68C5F303150D
:103BB0000D4E705D0A4D2D68C540094E356070BDD3
:103BC000003802400070004008544007003C0240AA
:103BD00088ED00E0FFFFF6FE103000240024F40022
:103BE000B000002000127A00B400002040EA010377
:103BF0009B0703D009E008C9121F08C0042AFAD2A3
:103C000003E011F8013B00F8013B521EF9D2704766
:103C100030B505462A460B4612F8010B13F8014B46
:103C200008B1A042F8D01CB1002802D06D1CF1E709
:103C3000284630BD421C10F8011B0029FBD1801A18
:103C40007047000070B50F4D00B92868002412E0DD
:103C50000A4602E09E4203D0521C1378002BF9D191
:103C6000DAB2224305D02BB124B1002100F8011BA8
:103C700004E00446401C0678002EE9D12860204666
:103C800070BD0000C400002000F0004230F0004091
:103C90000AD0C10D01F56071C0F3160042EA01516E
:103CA000C20840071143704700200146704730B5F5
:103CB0000B46014600202022012409E021FA02F5EA
:103CC0009D4205D303FA02F5491B04FA02F5284484
:103CD000151EA2F10102F1DC30BD2DE9F05F0546B1
:103CE000002092469B4688460646814640241BE0BB
:103CF000284641464746224600F0F5F953465A46C3
:103D0000C01A914110D311461846224600F0DCF942
:103D10002D1A67EB01084F4622460120002100F0D2
:103D2000D3F917EB00094E41201EA4F10104DFDC9A
:103D3000484631462A464346BDE8F09F2DE9FE4FEE
:103D4000804681EA0300C00F0C46009021F000413C
:103D500023F00045B8EB0200A94105D240462146B8
:103D600090461C460B46024623F00040104304D107
:103D70004046214603B0BDE8F08F270DC7F30A0087
:103D8000C3F30A510290401A0190402866DAC3F347
:103D9000130040F4801B0098924620B10023D2EB20
:103DA000030A63EB0B0B01985946C0F140025046E1
:103DB00000F08AF906460D4650465946019A00F031
:103DC000A2F910EB08006141002487EA115284EA4D
:103DD000E7731A433BD0009A3AB3019A012A4FEA9B
:103DE000075210DC001B61EB02014FF0004202EAB7
:103DF0000752CDE90042001C41F5801132462B46A6
:103E000000F0A0F9B6E7001B61EB0201001C41F5D0
:103E1000801300185B412018A2F5001747EB03013F
:103E200040EAD570B6196D4111E06D084FEA3606CB
:103E300045EAC0754FEA0752001B61EB0201001C06
:103E400041F5801149084FEA3000001951413246CE
:103E50002B4603B0BDE8F04F00F067B9009801228F
:103E600040000023D0EB020263EBE0730098214690
:103E70004FEAE074B8EB000061EB0401E9E783F07E
:103E800000435BE781F0004158E72DE9FE4F81EAEE
:103E9000030404F0004421F0004100944FF0000BB3
:103EA00023F0004350EA010402D052EA030404D193
:103EB0000020014603B0BDE8F08FC3F30A54C1F3FC
:103EC0000A552C44A4F2F3340194A0FB0254C1F32C
:103ED000130141F48011C3F3130343F4801301FB76
:103EE000024400FB034E840A970A44EA815447EADD
:103EF0008357A4FB076802958D0A05FB07854FEAE7
:103F0000932C04FB0C542705029D4FEA065847EA00
:103F10001637B5EB08056EEB070C870E920E47EAD5
:103F2000811742EA8312A7FB0201B6EB0B0164EB97
:103F300000042B0D43EA0C335E1844EB1C50DA46A8
:103F40005146E7FB0201C5F313044FEA0B3343EA82
:103F500014534FEA0432019C43EA0603A4F10C0413
:103F60000294009CCDE900B400F0ECF8A2E72DE942
:103F7000F04D81EA030404F0004B21F000451446A3
:103F80004FF0000A23F0004150EA050220D054EA25
:103F900001021DD0C5F30A570246C5F31303C1F34E
:103FA0001300C1F30A5640F4801543F48013A7EBC5
:103FB0000608101BD64608F2FD3873EB050002D345
:103FC00008F1010801E092185B41B8F1000F03DA33
:103FD00000200146BDE8F08D00204FF48011064618
:103FE00084460EE0171B73EB050705D3121B63EB2A
:103FF000050306434CEA010C49084FEA30009218C9
:104000005B4150EA0107EDD152EA030012D082EA87
:10401000040083EA0501084303D100224FF0004366
:1040200008E0101BAB4102D20122002302E06FF036
:10403000010253101AEB06004CEB085110EB0A007A
:1040400041EB0B01BDE8F04D00F06FB8C1F30A522F
:10405000C1F3130140F2FF3341F480119A4202DAB6
:1040600000200146704740F233439A42A2F23342A5
:1040700002DC524200F037B800F026B830B5002913
:1040800004DB4FF00044404264EB0101002B04DBF1
:104090004FF00044524264EB0303994208BF904240
:1040A00030BD0000064C074D06E0E06840F001031B
:1040B00094E8070098471034AC42F6D3FCF768F850
:1040C000C44B0008E44B0008202A04DB203A00FA25
:1040D00002F1002070479140C2F1200320FA03F35F
:1040E000194390407047202A04DB203A21FA02F05D
:1040F0000021704721FA02F3D040C2F12002914022
:10410000084319467047202A06DBCB17203A41FAAC
:1041100002F043EAE07306E041FA02F3D040C2F154
:104120002002914008431946704710B5002B08DA69
:10413000401C41F1000192185B411A4301D120F06B
:10414000010010BD2DE9F04D92469B4611B1B1FA28
:1041500081F202E0B0FA80F220329046FFF7B4FF1D
:1041600004460F4640EA0A0041EA0B0153465A460C
:10417000084303D120463946BDE8F08D114653EA85
:10418000010015D0C8F140025046FFF7ACFF0546CC
:104190000E46504659464246FFF796FF084301D067
:1041A000012000E00020054346EAE0762C43374337
:1041B0000A984FEA4453A0EB08004FEAD4240A308F
:1041C0004FF0000244EA47544FEAD72502D50020B9
:1041D0000146D1E7010510196941DDE908450019DB
:1041E0006941BDE8F04DA0E70FB4054B10B503A938
:1041F000044A029800F0ECF810BC5DF814FB0000D3
:104200003B300008600000200FB4084B10B504A933
:1042100002AA039800F0DCF8044602A9002000F08E
:104220007AFC204610BC5DF814FB0000174B000818
:1042300037B514460846064B6A46214600F0C8F8D2
:1042400004466946002000F066FC20463EBD0000A2
:10425000174B000802E008C8121F08C1002AFAD153
:1042600070477047002001E001C1121F002AFBD1F6
:10427000704700002DE9FF5FDDE90220010DDDF848
:1042800038B0024310D10F9801244CA2012808D065
:10429000002100980F9BC0E90021C0E90243BDE85E
:1042A000FF9F6FEA0B01F4E7A1F2FF3144F61050D3
:1042B00041430D140F9801280ED0A5EB0B00401CB4
:1042C0004FF000043E4EDFF8FC90B0F1000AA0462B
:1042D00005DACAF1000717E0CBF10000F0E7074666
:1042E00012E0F80707D02246334640464946FFF71A
:1042F000CCFD804689462246334610461946FFF7D4
:10430000C4FD04460E467F10002FEAD1DDE902010C
:10431000BAF1000F42464B4602DAFFF7B6FD01E064
:10432000FFF725FE04460E460022274BFFF7A6FEA8
:1043300003D84FF0FF30014607E00022234B204610
:104340003146FFF7FBFCFFF781FE102409E0002C4B
:104350000ADB0A220023FFF7C0FC019B30321A550A
:10436000641E50EA0102F2D1641C019AC4F11103E7
:1043700014440F9A012A09D00122084301D15B4558
:104380000FDD4FF0000205F101050DE0084303D1F8
:10439000A3EB0B056D1E09E000204FF0110B0F90F1
:1043A00088E701DA00226D1E002A83D000980F9959
:1043B000C0E90231C0E9004571E7000030000000AB
:1043C000000024400000F03F0000F0430000E03F08
:1043D0002DE9FF4F95B09B4689460646002512E21F
:1043E000252878D10024761CF94A27460121059416
:1043F0003378203B01FA03F0104202D00443761CCC
:10440000F6E730782A2811D06FF02F033078A0F12A
:104410003002092A16D8059A44F0020402EB8202FF
:1044200003EB42021044761C0590EFE759F8042B89
:104430000592002A03DA504244F40054059044F0F7
:104440000204761C30782E2816D116F8010F44F09D
:1044500004042A280DD06FF02F023078A0F1300329
:10446000092B09D807EB870302EB4303C718761C17
:10447000F3E759F8047B761C30786C280FD006DC03
:104480004C2817D068280DD06A2814D104E074286D
:1044900010D07A280FD10DE044F400140AE044F45F
:1044A000801401E044F440147278824202D1761CF8
:1044B00004F58014761C307866280BD013DC58285D
:1044C00077D009DC002875D04528F6D04628F4D0EE
:1044D00047281AD19FE118E0632835D0642879D0A5
:1044E000652812D197E1702873D008DC6728F1D0D5
:1044F00069286FD06E280DD06F2806D1B5E07328DB
:104500002CD0752875D0782874D05A4617999047C2
:104510006D1C76E1C4F30250022809D003280DD0A7
:10452000D9F8001004280DD00D6009F1040968E1E4
:10453000D9F80010EA17C1E90052F6E7D9F80010DF
:104540000D80F2E70D70F0E719F8041B8DF80010EC
:1045500000208DF80100EA46012003E059F804AB81
:104560004FF0FF3061074FF0000102D40DE008F179
:1045700001018846B9420FDA8045F8DB1AF80810C5
:104580000029F4D108E008F1010188468142FADBF4
:104590001AF808100029F6D105985B46A0EB080729
:1045A00021463846179A00F09EFA284400EB080589
:1045B00007E04DE02BE10DE01AF8010B5A46179980
:1045C0009047B8F10108F7D25B4621463846179A62
:1045D00014E142E00A220092C4F302524FF0000AB2
:1045E000022A08D059F804CB032A4FEAEC710AD00A
:1045F0000DE029E02AE009F1070121F00702F2E8C5
:1046000002C1914609E00FFA8CFC4FEAEC71042AD2
:1046100003D14FFA8CFC4FEAEC71002907DA0A4605
:104620000021DCF1000C61EB02012D2202E02205E9
:1046300004D52B228DF80420012203E0E20701D0EB
:104640002022F7E7904653E00A2102E010220DE015
:1046500010214FF0000A00910BE010224FF0000AE9
:1046600044F004040827009203E008224FF0000AF7
:104670000092C4F30252022A05D059F804CB00215B
:10468000032A08D009E009F1070121F00702F2E846
:1046900002C1914605E01FFA8CFC042A01D10CF0FE
:1046A000FF0C4FF00008220722D5702827D0009B6E
:1046B00083F0100353EA0A0309D15CEA010206D031
:1046C00030228DF804208DF8050002229046009BD0
:1046D00083F0080353EA0A030AD15CEA010201D11C
:1046E000620705D530228DF804204FF001087F1EA7
:1046F000582809D037A003900EA8029013E040225A
:104700008DF804200122E1E737A0F4E75346604624
:10471000009AFFF7E2FA84460398825C0298A0F1BF
:104720000100029002705CEA0100EFD1029806A934
:10473000A1EB000000F1200A600702D524F48034C8
:1047400000E00127574502DDA7EB0A0000E000204A
:1047500000EB0A01009005984144A0EB0100059090
:10476000E00306D45B462146179A059800F0BBF992
:104770000544002706E001A85A46C05D17999047F6
:104780006D1C7F1C4745F6DBE0030CD55B462146DC
:10479000179A059800F0A7F9054404E030205A461E
:1047A000179990476D1C0099481E00900029F5DC70
:1047B00008E0029802995A460078491C029117991C
:1047C00090476D1CBAF10001AAF1010AF1DC6BE11E
:1047D00009280100303132333435363738396162D7
:1047E000636465660000000030313233343536379B
:1047F00038394142434445460000000000F060F96A
:10480000054406F10106307800287FF4E9AD19B0BF
:104810002846BDE8F08F620700D4062709F1070299
:1048200022F0070CFCE80223E14603F000485FEAAF
:10483000080C02D00FF27C2C0DE05FEA045C02D57C
:104840000FF2742C07E05FEAC47C02D00FF26C2CEC
:1048500001E0AFF2700C4FF0FF3823F00043CDF8C9
:1048600050C065280CD006DC452809D046281DD04C
:1048700047283ED13EE0662818D0672839D139E074
:104880000021112F01DB112000E0781CCDE900018F
:1048900006A90EA8FFF7EEFCDDE90F010E9A0391C1
:1048A0000021009207F1010A04914EE04FF0004010
:1048B0000097CDE9011006A90EA8FFF7DBFCDDE9A2
:1048C0000F0203920E9B11990022DDF80CA00093B9
:1048D000049219B907F1010100EB010AB7EB0A00D4
:1048E00004D4C0F1FF3007F1010A0490AAEB0700DD
:1048F000019046E0012F00DA01270021112F01DD90
:10490000112000E03846CDE9000106A90EA8FFF706
:10491000B1FCDDE90F010E9A039100210491009290
:10492000BA4621070CD40399514500DA8A46BAF1F8
:10493000010F05DD009AAAF10101515C302908D070
:10494000B84202DA10F1040F06DA0121CDE90110B4
:1049500017E0AAF10101E9E7002805DC0499014408
:104960000491AAEB000102E0411C514500DD8A469A
:104970000499A0EB010000F1010001904FF000400C
:104980000290200704D40198504501DBCDF8048043
:1049900000208DF84F0002980DF14F07B0F1004F45
:1049A00025D02B200E9002984FF0020800280CDA38
:1049B000404202902D200E9007E00A210298FFF756
:1049C00076F93031029007F8011DB8F10001A8F125
:1049D0000108F2DC02980028EFD1791E0E980870C9
:1049E000307800F0200040F0450007F8020D12A8D2
:1049F000A0EB070000F107081498007800B101202F
:104A000000EB0A01019801EBE07105984144A0EB2D
:104A10000100A0F101000590E00306D45B462146A9
:104A2000179A059800F05FF805441498007820B1B3
:104A30005A461799904705F10105E00323D55B46D7
:104A40002146179A059800F04EF805441BE004989B
:104A5000002807DBDDE90301884203DD0098405CA4
:104A6000179901E0179930205A46904704986D1C19
:104A7000401C04900198401E019004D12E205A46FB
:104A8000179990476D1CBAF10001AAF1010ADEDC0A
:104A900005E017F8010B5A46179990476D1CB8F1BD
:104AA0000001A8F10108F4DC5B462146179A05983D
:104AB000A4E600002D0000002B00000020000000F4
:104AC0002DE9F041044600251E461746880405D40A
:104AD00006E039462020B04705F10105641EF8D5EF
:104AE0002846BDE8F0812DE9F041044600251E4628
:104AF0009046C80301D5302700E02027880405D55B
:104B000006E041463846B04705F10105641EF8D578
:104B10002846BDE8F0810A68531C0B60107070478E
:104B2000800C0000007800008007000020000000DA
:104B300020000000200000000090010000000F0095
:104B400000F000003138363931383639303730002E
:104B500054502D4C494E4B5F6E796561723100386F
:104B600030383600535441004553503132460057D7
:104B700050415F575041325F50534B005750415F97
:104B800050534B005354412B415000574550005453
:104B900043505F534552564552005443505F434C77
:104BA00049454E54005544505F434C49454E5400CE
:104BB0006F70656E00777061777061325F616573E9
:104BC00000000000E44B000800000020C8000000C6
:104BD00054420008AC4C0008C8000020D8BB0100BB
:104BE000644200085F4B0008504B0008B54B0008BA
:104BF000444B0008684B0008C04B0008644B000899
:104C0000884B0008844B0008A54B00089A4B00080D
:104C10008F4B0008B04B00088B4B00087C4B000802
:104C2000734B00086F4B00080000000000010203F6
:104C30000401020304060708090000000000000048
:104C4000000000000000000000000000A732000883
:104C5000DD320008A00F00200000006800000010F6
:104C6000A09F012000000F6800F00010000000006D
:104C70000000000000000000000000000000000034
:104C80000000000000000000000000000000000024
:104C900000000000007A030A00000000000000008D
:0C4CA000010203040607080900000000E0
:040000050800018965
:00000001FF
