:020000040800F2
:10000000C0C001209D010008113B0008133B0008FF
:10001000173B00081B3B00081F3B000800000000C6
:10002000000000000000000000000000233B00086A
:10003000253B000800000000273B0008293B000882
:10004000B7010008B7010008B7010008B7010008B0
:10005000B7010008B7010008B7010008B7010008A0
:10006000B7010008B7010008B7010008B701000890
:10007000B7010008B7010008B7010008B701000880
:10008000B7010008572F0008B7010008B7010008A2
:10009000B7010008B7010008B7010008B701000860
:1000A000B7010008B7010008B7010008B701000850
:1000B000B70100081D2E0008B7010008B7010008AD
:1000C000B7010008B7010008B7010008B701000830
:1000D000B7010008B7010008092C000841310008E9
:1000E000B7010008B7010008B7010008B701000810
:1000F000B7010008B7010008B7010008B701000800
:10010000B7010008B7010008B7010008B7010008EF
:10011000B7010008B7010008B7010008B7010008DF
:10012000B7010008B7010008B7010008B7010008CF
:10013000B7010008B7010008B7010008B7010008BF
:10014000B7010008B7010008B7010008B7010008AF
:10015000B7010008B7010008B7010008B70100089F
:10016000B7010008B7010008B7010008B70100088F
:10017000B7010008B7010008B7010008B70100087F
:10018000B7010008B7010008DFF80CD004F088F8C8
:1001900000480047F5380008C0C0012006488047E5
:1001A00006480047FEE7FEE7FEE7FEE7FEE7FEE75C
:1001B000FEE7FEE7FEE7FEE7073C000889010008CE
:1001C00070B504460025F648008810F4004F0BD0A7
:1001D0000020F3490988C1F30E01F24A5054214628
:1001E000104603F0CDFD0546284670BD2DE9F041CF
:1001F00006460D46144600270020E949088031468E
:10020000E9A002F0AEFDE5B1DCB10FE0012003F0A2
:1002100033F8E348008810F4004F07D02846FFF772
:10022000CFFF00B106E00020DD490880601E80B2EB
:100230000400EBD100BF24B93146DDA004F034F94D
:1002400001273846BDE8F08170B500240025C8229A
:10025000DBA1DCA0FFF7CAFF20B10021DD4880F858
:10026000BF1570BDDCA0FFF7ABFF0446DAA1601C30
:1002700003F086FD054600202870621CD7A1D848EF
:1002800004F022F90020C649088000BFE9E77CB5E8
:100290000024002500BFD348007820B94FF4E13096
:1002A00002F008FD15E000221021CF4802F042FCC8
:1002B00000224021CD4800F07DFF00228021CB4864
:1002C00000F078FF0021C94800F0C7FEC84802F0DE
:1002D000F1FC01224021C54800F06CFF002040F2F3
:1002E000BB51C44BC14A121DCDE900105106BE4896
:1002F000183802F0B9FD01228021BC4800F05AFFF5
:1003000001206421BC4BB94A121DCDE90010C10681
:10031000B54802F0A9FD02F009FE09E0601CC4B274
:100320000A2002F0A9FF142C02DD0125002406E0BA
:100330002822A3A1B1A0FFF759FF0028EED100BFEA
:10034000A848007840B964229DA1ADA0FFF74EFFF8
:100350000120A44908709EE7642299A1AFA0FFF78D
:1003600045FF4FF4FA7296A1AEA0FFF73FFF18B910
:100370000121984880F8BE15FFF766FF28467CBD2E
:1003800010B504468648008810F4004F0ED00020B7
:1003900083490988C1F30E01824A505411468FA047
:1003A00004F082F814B100207D49088010BD70B5BA
:1003B00000240025642282A19EA0FFF717FF0BE016
:1003C000002077490880601CC4B20A2002F054FF64
:1003D000C82C01DD012504E099A0FFF7F1FE0028FB
:1003E000EED000BF284670BD70B500240025642201
:1003F00073A195A0FFF7FAFE642271A196A0FFF702
:10040000F5FE0BE0002066490880601CC4B20A209B
:1004100002F032FFC82C01DD012504E088A0FFF7BF
:10042000CFFE0028EED000BF284670BD10B58CA0CE
:1004300002F097FC4FF4FA7002F01EFF142260A144
:100440006EA0FFF7D3FE10BD10B564225CA185A09D
:10045000FFF7CCFE10BD10B50024642284A185A056
:10046000FFF7C4FE87A0FFF7ABFE044600204C490F
:1004700008801CB1E0793038C0B210BD0120FCE723
:1004800070B50024002532224DA180A0FFF7AEFEFA
:1004900081A0FFF795FE0546002041490880287895
:1004A0002B2800D00124204670BD70B50024002503
:1004B000C82243A17AA0FFF799FE20B10021454848
:1004C00080F8BF1570BD44A0FFF77AFE044642A134
:1004D000601C03F055FC054600202870621C3FA1FB
:1004E0003F48203803F0F0FF70A13D48203803F06A
:1004F00047FC18B90221374880F8BD15002028496B
:10050000088000BFDEE700B58BB0012169480068B4
:100510000623CDE90001684802686848016868A0C0
:1005200003F0C2FF00BF642225A171A0FFF75EFEA9
:100530000028F8D1322222A170A0FFF757FE322204
:100540001FA173A0FFF752FE012000210622CDE972
:100550000021029058480368584872A1026803A815
:1005600003F0B2FF642216A103A8FFF73FFE0020AC
:100570000B4908800BB000BD10B5642210A171A01A
:10058000FFF734FE64220EA171A0FFF72FFE642056
:1005900002F072FE64220AA171A0FFF727FE10BDCF
:1005A000620000209C07002025730D0A0000000057
:1005B000257320CFECD3A6B3ACCAB10D0A0000005E
:1005C0004F4B000041542B4349505354414D41433C
:1005D0003F000000D800002022000000257300002A
:1005E000B706002044000020A06002400044004004
:1005F00000CA0800C40D0020600D00204154000016
:1006000041542B554152545F4355523D3537363096
:1006100030302C382C312C302C30000041544530F7
:100620000000000041542B43574D4F44455F435554
:10063000523D310041542B524553544F5245000016
:10064000726561647900000041542B435741555451
:100650004F434F4E4E3D300041542B5253540000F7
:100660002B2B2B0041542B435751415000000000CD
:100670003A00000041542B434950535441545553C0
:10068000000000005354415455533A0041542B4349
:10069000574A41503F0000002B43574A41503A000F
:1006A00041542B4349505354413F0000302E302ECB
:1006B000302E3000300000201400002010000020F8
:1006C000737369643A2573207061737377643A2594
:1006D000732063683A25642065636E3A2573206D44
:1006E00061785F6C696E6B3A25640D0A000000004A
:1006F00041542B43574D4F44453D320041542B4309
:1007000057444843505F4445463D302C310000007B
:1007100041542B435744484350535F4445463D3072
:100720000000000041542B43575341505F4445465D
:100730003D222573222C222573222C25642C25642E
:100740002C25640041542B43574D4F44453D310007
:1007500041542B43574155544F434F4E4E3D31006A
:1007600041542B43575354415254534D4152543DDD
:100770003300000010B56422AFF2BC1169A0FFF78E
:1007800035FD00206B49088010BD70B500240025A0
:10079000FFF7F2FE18E00020664908800A2002F008
:1007A0006BFD601C84B240F6B83094FBF0F100FBA6
:1007B000114010B960A003F077FE42F6E060844279
:1007C00002DD0024012504E05FA0FFF7F9FC00280A
:1007D000E1D000BFFFF7CEFF284670BD70B586B0F0
:1007E00004461821684603F0C0FA00266422AFF2DE
:1007F000302158A0FFF7FAFC6422AFF23C2158A048
:10080000FFF7F4FC22465AA1684603F05DFEC5B22C
:1008100000200DF805006422AFF25C216846FFF766
:10082000E5FC00B10126304606B070BD10B50446A7
:1008300041F2883253A155A0FFF7D8FC05E00A2009
:1008400002F01AFD00203B490880AFF28C20FFF730
:10085000B7FC0028F3D12046FFF7B2FC10BD2DE90C
:10086000F04385B004460F4615460026B0461421D5
:10087000684603F07AFAB1462B46224646A16846FE
:1008800003F022FE00F0FF0900200DF809004FF4EC
:10089000C86246A16846FFF7A9FC002025490880E8
:1008A000394644A002F05DFA0CE00020214908809E
:1008B0000A2002F0E1FC701CC6B2FA2E02DD4FF0F5
:1008C000010804E03DA0FFF77BFC0028EDD000BF4D
:1008D000002018490880404605B0BDE8F08310B5F7
:1008E0006422AFF224311EA0FFF780FC10BD1FB5BB
:1008F0000446224633A1684603F0E6FD6422AFF2C7
:1009000040316846FFF772FC04B010BD10B5642298
:10091000AFF25431AFF2B420FFF768FC10BD0146CE
:100920000020704741542B435753544F50534D416F
:10093000525400006200002077696669C5E4D6C39E
:100940006D6F64650D0A00005749464920474F54B2
:100950002049500041542B4349504D55583D3100DA
:1009600041542B4349505345525645523D300000A7
:1009700041542B4349505345525645523D312C2545
:10098000730000002B43574C41503A0041542B4315
:10099000574C41500000000041542B4349505345EF
:1009A0004E4445583D25642C256400000D0A3E2028
:1009B0000000000025735C300000000053454E44E9
:1009C000204F4B0041542B434950434C4F53453D1E
:1009D00025640000F0B589B005460E46202101A827
:1009E00003F0C3F90027002405E0601CC4B2142CF6
:1009F00001DD012739E04FF4FA7299A199A0FFF7C0
:100A0000F5FB0028F1D101219A4880F8BE15334644
:100A10002A4699A101A803F057FD05E0601CC4B265
:100A2000142C01DD012720E041F2883298A101A8B1
:100A3000FFF7DCFB0028F1D102218E4880F8BD15BC
:100A4000642002F019FC05E0601CC4B2142C01DD26
:100A500001270AE04FF47A7281A190A0FFF7C6FB4C
:100A60000028F1D19149088000BF384609B0F0BD97
:100A7000F0B589B004460D461646202101A803F0C2
:100A800074F90027D4B933462A4689A101A803F096
:100A90001BFD642002F0F0FB142271A18BA0FFF774
:100AA000A5FB642002F0E8FB00BF4FF4FA726CA1D2
:100AB00001A8FFF79BFB0028F7D139E0012C16D1E4
:100AC00085A003F0F1FC142265A180A0FFF78EFB46
:100AD00033462A4687A101A803F0F6FC00BFC822CE
:100AE0005FA101A8FFF782FB0028F8D120E03222A5
:100AF0005BA187A0FFF77AFB322002F0BDFB6422E6
:100B000057A186A0FFF772FB324688A101A803F027
:100B1000DBFC642252A101A8FFF768FB2A4688A1EA
:100B200001A803F0D1FC64224DA101A8FFF75EFBF0
:100B3000FFF7BBFC00205D490880384609B0F0BDD6
:100B400010B55A4800880121B1EBE03F7ED180A06A
:100B5000FFF736FB20B380A0FFF732FB20B1052161
:100B6000444880F8BD1518E07EA0FFF729FB20B1AE
:100B70000221404880F8BD150FE000213D4880F873
:100B8000B815032179480078303800EB400202EBB9
:100B9000C002774800F8121000BF002043490880C7
:100BA00074A0FFF70DFB88B10021324880F8B8151A
:100BB00004216E480078303800EB400202EBC0029E
:100BC0006B4800F812100020384908806BA0FFF72E
:100BD000F7FA00283BD00121264880F8B81568A113
:100BE000624803F0CDF86749086000200968887002
:100BF00065A164480068C01C03F0C2F8634908603E
:100C00000020096808705F4800684078303819494A
:100C100008705C480068C01C03F0EEF881B215480B
:100C2000A0F8B615B0F8B62558480168491C114817
:100C3000401C03F081F800210E48B0F8B625401C96
:100C40008154002019490880012010BD06E050A001
:100C5000FFF7B6FA10B10020144908800020F4E72D
:100C60004F4B000041542B43574D4F44455F435574
:100C7000523D3100D800002041542B43574A415087
:100C80005F4355523D222573222C222573220000FA
:100C90005749464920474F542049500041542B435F
:100CA000574155544F434F4E4E3D31006200002096
:100CB00041542B43495053544152543D22554450C2
:100CC000222C222573222C257300000041542B4333
:100CD00049504D55583D3000574946492D535441D0
:100CE000207463705F636C69656E74206D6F6465FA
:100CF0000D0A000041542B43495053544152543D76
:100D000022544350222C222573222C2573000000EC
:100D100041542B4349504D55583D310041542B43CC
:100D200049505345525645523D30000041542B43E3
:100D300049505345525645523D312C257300000011
:100D400041542B43495053544F3D2573000000003C
:100D5000434F4E4E45435400444953434F4E4E4536
:100D60004354000057494649000000009C070020FA
:100D7000CA060020434C4F53454400002B495044C1
:100D80002C000000480000203A0000004C00002029
:100D90000D0A4F4B0D0A000033490143334A1160DD
:100DA000704770B5002100230F22C47824B32F4C64
:100DB000246804F4E064C4F5E064C4F30721C1F1DD
:100DC0000404E3B20A4144789C40E1B284781440C0
:100DD00021430C07210E264C05786155047804F058
:100DE0001F050124AC4005786D114FF0E02606EB9D
:100DF0008505C5F8004109E0047804F01F040125C9
:100E0000A5401C4C0678761144F8265070BD1A4A4D
:100E10000A400243154B1B1F1A60704739B1134A31
:100E2000121D12680243114B1B1D1A6006E00F4A87
:100E3000121D126882430D4B1B1D1A607047042857
:100E400008D14FF0E021096941F004014FF0E022A0
:100E5000116107E04FF0E021096921F004014FF032
:100E6000E0221161704700000000FA050CED00E07F
:100E700000E400E080E100E080FFFF1F10B50446C1
:100E8000FA48844208D10121102001F0FCFA002127
:100E9000102001F0F8FA57E0F548844209D1012109
:100EA000480401F0DFFA00214FF4003001F0DAFAD3
:100EB0004AE0F048844209D10121880401F0D2FAC5
:100EC00000214FF4802001F0CDFA3DE0EA48844251
:100ED00009D10121C80401F0C5FA00214FF4002016
:100EE00001F0C0FA30E0E548844209D1012108054B
:100EF00001F0B8FA00214FF4801001F0B3FA23E0BA
:100F0000DF48844208D10121202001F0BCFA0021F1
:100F1000202001F0B8FA17E0DA48844209D1012113
:100F2000880701F09FFA00214FF0804001F09AFA03
:100F30000AE0D548844207D10121400501F092FA28
:100F40000021600501F08EFA10BD2DE9FF4705462E
:100F50000E460024A14600BFA046B08900B100BFE4
:100F60002C8A24F44054F08804432C82AC8941F24A
:100F70000C608443B0883189084371890843044375
:100F8000AC81AC8A24F44074B0890443AC826846D6
:100F900001F0F9F8B548854202D0B948854202D13E
:100FA000DDF80C9001E0DDF80890A88910F4004FFE
:100FB00008D009EBC90000EB091031684900B0FB0B
:100FC000F1F707E009EBC90000EB0910316889006F
:100FD000B0FBF1F76420B7FBF0F0040120096421B5
:100FE00001FB1078A88910F4004F08D0322000EBE4
:100FF000C800B0FBF1F000F00700044308E0322025
:1010000000EB08106421B0FBF1F000F00F00044386
:101010002C81BDE8FF874FF41651016000218180CB
:10102000C18001810C21418100218181704710B56F
:1010300002460020108A20F470600B884C882343FD
:101040008C882343CC8823431843108210BD002191
:10105000018041808180C180704721B1828942F442
:101060000052828104E082894DF6FF731A4082812A
:101070007047028B02F47F420283028B0A43028391
:10108000704721B1828942F40042828103E0828963
:10109000C2F30E028281704721B1828A42F400625B
:1010A000828204E0828A4FF2FF731A408282704784
:1010B000C1F308028280704701468888C0F30800A7
:1010C0007047028A4FF6F0731A400282028A0A437E
:1010D0000282704721B1828942F00202828104E0DB
:1010E00082894FF6FD731A408281704782894FF2E0
:1010F000FF731A40828182890A4382817047028A83
:101100004FF6DF731A400282028A0A430282704756
:1011100021B1028A42F48042028204E0028A4BF644
:10112000FF731A4002827047818941F00101818179
:10113000704721B1828A42F00802828204E0828AEA
:101140004FF6F7731A4082827047028BD2B2028345
:10115000028B42EA01220283704721B1828A42F067
:101160002002828204E0828A4FF6DF731A40828274
:10117000704721B1828A42F01002828204E0828AA2
:101180004FF6EF731A4082827047828A4FF6FB73E4
:101190001A408282828A0A438282704721B1828AFF
:1011A00042F00202828204E0828A4FF6FD731A4006
:1011B000828270471AB1838A0B43838202E0838A5A
:1011C0008B4383827047F0B5034600240026002538
:1011D0000020A1F510676A3F00D100BF1846C1F397
:1011E000421401F01F06012707FA06F5012C01D170
:1011F0000C3004E0022C01D1103000E014301AB1A0
:1012000007682F43076002E00768AF430760F0BD3F
:1012100002460020B1F5007F00D100BF13880B42C9
:1012200001D0012000E00020704701F40072B2F507
:10123000007F00D100BFCA430280704770B50246EC
:101240000024002300250020A1F510666A3E00D18D
:1012500000BFC1F3421501F01F03012606FA03F394
:10126000012D13D19689334017E000000010014092
:101270000044004000480040004C00400050004046
:101280000014014000780040007C0040022D02D193
:10129000168A334001E0968A33400C12012606FA82
:1012A00004F41688344013B10CB1012000E0002092
:1012B00070BD10B500220023A1F510646A3C00D176
:1012C00000BF0A1201249440A3B2DC43048010BD85
:1012D00010B50446FE48844208D10121084601F0B9
:1012E000D2F80021012001F0CEF89DE0B4F1804F4A
:1012F00008D10121084601F0B5F80021012001F0D4
:10130000B1F891E0F348844208D10121022001F0B4
:10131000A9F80021022001F0A5F885E0EE488442FA
:1013200008D10121042001F09DF80021042001F0E2
:1013300099F879E0E948844208D10121082001F0B8
:1013400091F80021082001F08DF86DE0E448844216
:1013500008D10121102001F085F80021102001F0B2
:1013600081F861E0DF48844208D10121202001F0AA
:1013700079F80021202001F075F855E0DA48844220
:1013800008D10121022001F07EF80021022001F0A5
:101390007AF849E0D548844209D10121080401F0D6
:1013A00072F800214FF4803001F06DF83CE0D04835
:1013B000844209D10121480401F065F800214FF46D
:1013C000003001F060F82FE0CA48844209D10121C1
:1013D000880401F058F800214FF4802001F053F800
:1013E00022E0C548844208D10121402001F03AF8AA
:1013F0000021402001F036F816E0C048844208D1B0
:101400000121802001F02EF80021802001F02AF82F
:101410000AE0BB48844207D10121801501F022F87F
:101420000021A01501F01EF810BD00220288A84B73
:1014300098420ED0AC4B98420BD0B0F1804F08D000
:10144000A44B984205D0A44B984202D0A34B98429B
:1014500004D14FF68F731A404B881A43A04B984221
:1014600007D0A04B984204D04FF6FF431A400B8997
:101470001A4302804B68C3620B880385944B9842E1
:1014800002D0994B984201D18B7A03860123838243
:1014900070474FF0FF3141600021018001814180A0
:1014A000817270470185828270470A460021018857
:1014B0004FF68F73194011430180704741627047A6
:1014C000C16270470146486A70470146088D7047FF
:1014D00021B1028842F00202028004E002884FF645
:1014E000FD731A400280704721B1028842F0040265
:1014F000028004E002884FF6FB731A4002807047B6
:1015000021B1028842F08002028004E002884FF696
:101510007F731A400280704702884FF6F7731A40B3
:10152000028002880A430280704702884FF6FF4318
:101530001A40028002880A430280704721B1028863
:1015400042F00102028004E002884FF6FE731A4066
:101550000280704770B5002400220023058C4FF6EE
:10156000FE7635400584028C8388048B4FF68F7598
:101570002C40B51E2C400D882C43751E2A408D89A9
:101580002A434D882A43524DA84202D0564DA842C4
:1015900013D14FF6F7752A40CD892A434FF6FB75D4
:1015A0002A408D882A434FF6FF652B404FF6FF55A2
:1015B0002B400D8A2B434D8A2B43838004838D68F7
:1015C0004563028470BD70B5002400220023058CA1
:1015D0004FF6EF7635400584028C8388048B48F6FD
:1015E000FF752C404FF6FF452C400D884FF6FF76D7
:1015F00006EA05252C434FF6DF752A408D8906EA59
:1016000005152A434D8806EA05152A43304DA842A0
:1016100002D0354DA8421DD14FF67F752A40CD89A5
:101620004FF6FF7606EA05152A434FF6BF752A40A6
:101630008D8806EA05152A434FF6FF352B404FF2F9
:10164000FF752B400D8A06EA85052B434D8A06EA75
:1016500085052B43838004838D688563028470BD78
:1016600070B5002400220023058C4FF6FF6635403C
:101670000584028C8388848B4FF68F752C404FF63F
:10168000FC752C400D882C434FF6FF552A408D8960
:101690004FF6FF7606EA05252A434D8806EA05251A
:1016A0002A430B4DA84202D00F4DA84238D14FF229
:1016B000FF752A40CD894FF6FF7606EA05252A43B5
:1016C0004FF6FF352A408D8806EA05252A4319E0A2
:1016D000000001400004004000080040000C0040F1
:1016E0000010004000140040000401400040014090
:1016F000004401400048014000180040001C004028
:10170000002000404EF6FF752B404DF6FF752B4034
:101710000D8A06EA05152B434D8A06EA05152B436B
:10172000838084838D68C563028470BD70B5002298
:1017300000230024058C4EF6FF7635400584038C8B
:101740008488828B48F6FF752A404FF6FF452A4071
:101750000D884FF6FF7606EA05252A434DF6FF75FC
:101760002B408D8906EA05352B434D8806EA053561
:101770002B43FE4DA84202D0FD4DA84208D14BF6A6
:10178000FF752C400D8A4FF6FF7606EA85152C432F
:10179000848082838D680564038470BD002101808C
:1017A0004180818081608181C18101824182704755
:1017B00070B50346002000241846183001258D40DE
:1017C000ACB21D8CA5431D8409B108290AD100EBD8
:1017D000610005684FF68F76354005600568154352
:1017E00005600FE00D1FC5F34E052844056848F657
:1017F000FF763540056005684FF6FF7606EA02265B
:101800003543056070BD4163704781637047C163B4
:101810007047016470470A460021018B4FF68F73B1
:1018200019401143018370470A460021018B48F695
:10183000FF7319404FF6FF7303EA02231943018334
:1018400070470A460021818B4FF68F731940114370
:10185000818370470A460021818B48F6FF73194047
:101860004FF6FF7303EA02231943818370470A4648
:101870000021018B4FF6F773194011430183704724
:101880000A460021018B4FF2FF7319404FF6FF7398
:1018900003EA02231943018370470A460021818B22
:1018A0004FF6F77319401143818370470A460021B0
:1018B000818B4FF2FF7319404FF6FF7303EA022347
:1018C0001943818370470A460021018B4FF6FB7351
:1018D00019401143018370470A460021018B4FF6DE
:1018E000FF3319404FF6FF7303EA022319430183C4
:1018F00070470A460021818B4FF6FB731940114354
:10190000818370470A460021818B4FF6FF331940CF
:101910004FF6FF7303EA02231943818370470A4697
:101920000021018B4FF67F731940114301837047EB
:101930000A460021018BC1F30E014FF6FF7303EA43
:1019400002231943018370470A460021818B4FF619
:101950007F7319401143818370470A460021818BB0
:10196000C1F30E014FF6FF7303EA0223194381838B
:1019700070470A460021018C4FF6FD731940114350
:10198000018470470A460021018C4FF6F773194015
:101990001143018470470A460021018C4FF6DF7322
:1019A00019404FF6FF7303EA02131943018470478D
:1019B0000A460021018C4FF67F7319404FF6FF73E2
:1019C00003EA02131943018470470A460021018C7F
:1019D0004FF6FF5319404FF6FF7303EA02231943F2
:1019E000018470470A460021018C4FF2FF731940B1
:1019F0004FF6FF7303EA02231943018470470A4636
:101A00000021018C4DF6FF7319404FF6FF7303EA76
:101A1000023319430184704730B5002301248C4000
:101A2000A3B2048C9C430484048C02FA01F5ADB289
:101A30002C43048430BD30B5002304248C40A3B271
:101A4000048C9C430484048C02FA01F5ADB22C434F
:101A5000048430BD828B4FF2FF331A408283828B25
:101A60004FF6FF7303EA01231A4382837047F0B5F0
:101A70000C461546002100220026078C4EF6FF7CFE
:101A800007EA0C070784818B028C4FF6FF7707EA81
:101A9000043640F6FF4739404FF6FF7707EA05273F
:101AA00039434FF6FF7707EA0337394345F6FF77A7
:101AB0003A4046F480573A4381830284F0BD828BDA
:101AC0004FF6F3731A408283828B0A4382837047F6
:101AD000F0B50C461546002100220026078C4FF673
:101AE000FF6C07EA0C070784818B028C4FF6FF77A7
:101AF00007EA04264FF60C7739404FF6FF7707EADE
:101B000003172F4339434FF2FF573A4046F480778B
:101B10003A4381830284F0BD028B4FF2FF331A40B7
:101B20000283028B4FF6FF7303EA01231A430283F9
:101B30007047F0B50C461546002100220026078CA0
:101B40004FF6EF7C07EA0C070784018B028C4FF6F7
:101B5000FF7707EA041640F6FF4739404FF6FF7754
:101B600007EA033739434FF6FF7703E000000140EF
:101B70000004014007EA052739434FF65F773A40F2
:101B800046F010073A4301830284F0BD028B4FF602
:101B9000F3731A400283028B0A4302837047F0B545
:101BA0000C46154600210022068C4FF6FE773E407B
:101BB0000684018B028C4FF60C7631407E1C06EABF
:101BC00003162E4331434FF6F576324044F00106BA
:101BD000324301830284F0BD70B505460C4620886F
:101BE00050B92389A28861882846FFF7D8FFE18889
:101BF0002846FFF7CBFF25E0208804280AD1238957
:101C0000A28861882846FFF794FFE1882846FFF7FD
:101C100083FF17E0208808280AD12389A2886188D9
:101C20002846FFF755FFE1882846FFF748FF09E0FF
:101C30002389A28861882846FFF719FFE188284692
:101C4000FFF708FF70BD00210180418001218180E4
:101C50000021C180018170472DE9F04105460C4605
:101C600000260127608808B9022600E00026A08827
:101C7000012801D1022700E001272088A0B923898B
:101C8000A28861882846FFF78AFFE1882846FFF787
:101C90007DFF23893A4631462846FFF74AFFE1880F
:101CA0002846FFF739FF13E02389A2886188284678
:101CB000FFF73FFFE1882846FFF72EFF23893A46CA
:101CC00031462846FFF76BFFE1882846FFF75EFFA5
:101CD000BDE8F0810146486B70470146886B70474C
:101CE0000146C86B70470146086C70470A884B88EC
:101CF0001A438B881A43CB881A430B891A434B89A2
:101D00001A438B891A43A0F84420704700210180B0
:101D100041808180C180018141818181704731B1E1
:101D2000B0F8442042F40042A0F8442005E0B0F8A6
:101D30004420C2F30E02A0F84420704721B18288EB
:101D400042F00402828004E082884FF6FB731A405E
:101D50008280704721B1828842F00102828004E0D3
:101D600082884FF6FE731A40828070471AB18389C9
:101D70000B43838102E083898B4383817047818297
:101D8000704702460020138A0B4201D0012000E078
:101D900000207047CA430282704730B502460020D7
:101DA00000230024158A05EA0103958905EA010448
:101DB00013B10CB1012000E0002030BDCA43028203
:101DC000704741EA0203A0F8483070471AB183898E
:101DD0000B43838102E083898B438381704721B168
:101DE000828842F00802828004E082884FF6F7730E
:101DF0001A408280704701894FF6F87211400181C4
:101E000070470A46002101894FF68F73194011432C
:101E10000181704730B504460D4629462046FFF73C
:101E2000F0FF208940F00700208130BD2DE9F0410E
:101E300004460D4616461F46602D06D13B4601223C
:101E400031462046FFF775FE05E03B46012231464C
:101E50002046FFF7A4FE29462046FFF7D2FF20893F
:101E600040F007002081BDE8F08130B50C4600212C
:101E70000189C9B24FF6FF7505EA032515432543CD
:101E80002943018130BD2DE9F04105460E46174634
:101E90009846002443463A4631462846FFF7E5FF78
:101EA0002C894FF6F870044044F007044FF68F7009
:101EB000044044F070042C81BDE8F081F0B5044684
:101EC0000D4616461F463B46324629462046FFF73A
:101ED000CCFF208940F480402081F0BD82884FF6FD
:101EE0008F731A40828082880A43828070470289F9
:101EF0004FF6F8731A40028102890A430281704743
:101F000002894FF67F731A40028102890A430281D7
:101F10007047F0B50C4615461E46002100220023EE
:101F20000189028B038C4FF6F877394021434FF635
:101F3000FC473A4040F201173A434FF6DD773B4009
:101F40004FF6FF7707EA06172F433B4301810283D1
:101F50000384F0BD21B1828842F08002828004E0D7
:101F600082884FF67F731A4082807047A0F8501025
:101F700070470000F948006840F00100F749086028
:101F80000020F64908310860F4480068F449084028
:101F9000F2490860F348091D0860F348EF498431AD
:101FA0000860F0481038091D0860EC48006820F40B
:101FB0008020EA4908600020E8490C310860E749C0
:101FC0008C31086070470021E44A921C1170114660
:101FD0000870704710B501460022002300204A1106
:101FE000012A02D1DD4C236808E0022A03D1DB4C30
:101FF0007034236802E0D94C7434236801F01F0266
:10200000012494401C4201D0012000E0002010BDBA
:1020100038B5002000900024002500BF3120FFF7D4
:10202000D9FF05460098401C00900098B0F5A04FDD
:1020300001D0002DF2D03120FFF7CCFF08B10124F0
:1020400000E00024204638BD01460020C34A106845
:1020500020F0F80040EAC10010607047C3490860F2
:1020600070470021BD4A703211701170012802D0F2
:1020700004280AD104E00121B84A7032117005E049
:102080000521B64A7032117000E000BF00BF7047F2
:10209000B7490860704770B5049C41EA8215012673
:1020A000C6EB530645EA0645054345EA0465AB4ED3
:1020B000361D356070BDAD4908667047820142EA41
:1020C0000172A64B84331A607047A849886670472E
:1020D00010B5830143EA016343EA02739F4C8834DD
:1020E000236010BDA14908677047A049C8647047C4
:1020F00002460020994B0833186820F0EC6042EA51
:1021000001031843954B08331860704702460020BE
:10211000924B0833186820F0784042EA01031843D4
:102120008E4B083318607047014600208B4A0832F6
:10213000106820F00300084310607047874808309B
:10214000006800F00C00704701460020834A083206
:10215000106820F0F000084310607047014600202E
:102160007E4A0832106820F4E0500843106070473F
:1021700001460020794A0832106820F4604040EAA5
:10218000C10010607047F0B5002100220024022534
:1021900000260223714F08373F6807F00C0121B178
:1021A000042905D0082937D105E0724F076036E0D1
:1021B000714F076033E0694F3F1D3F68C7F380569A
:1021C000664F3F1D3F6807F03F036EB16A4FB7FB94
:1021D000F3F7DFF888C10CF1040CDCF800C0CCF395
:1021E000881C07FB0CF40CE0624FB7FBF3F7DFF839
:1021F0006CC10CF1040CDCF800C0CCF3881C07FBAC
:102200000CF4564F3F1D3F68C7F301477F1C7D000C
:10221000B4FBF5F7076002E0564F076000BF00BF50
:102220004E4F08373F6807F0F0010909534F7A5CB9
:102230000768D7404760494F08373F6807F4E051C7
:10224000890A4E4F7A5C4768D7408760434F08370A
:102250003F6807F46041490B484F7A5C4768D740B4
:10226000C760F0BD002100F44072B2F5407F0AD192
:102270003A4A0832116821F4F811414A02401143E8
:10228000364A08321160354A70321268C0F30B03C7
:102290001A43324B70331A6070473549443908602D
:1022A00070473349403908607047364908607047C5
:1022B00001460020294A8C32106820F01F004A1E77
:1022C0001043264A8C321060704701460020234A92
:1022D0008C32106820F4F8504A1E40EA02201F4A4F
:1022E0008C3210607047014600201C4A8C32106806
:1022F00020F4401008431060704701460020174A40
:102300008C32106820F4400008431060704701468A
:102310000020124A8C32106820F4403008431060CC
:10232000704719490860704739B10C4A3032126859
:1023300002430A4B30331A6006E0084A3032126812
:102340008243064B30331A607047F9B1034A343286
:1023500012680243014B34331A601CE0003802401B
:10236000FFFFF6EA10300024003000200000474252
:10237000800E47420024F40000127A005000002032
:10238000FFFCFF0F5C014742E01147428F4A126891
:1023900082438E4B1A60704739B18C4A121D126805
:1023A00002438A4B1B1D1A6006E0884A121D126800
:1023B0008243864B1B1D1A60704739B1834A0C3229
:1023C00012680243814B0C331A6006E07F4A0C32DC
:1023D000126882437D4B0C331A60704739B17B4AD7
:1023E000103212680243794B10331A6006E0774AC4
:1023F000103212688243754B10331A60704739B13E
:10240000724A243A12680243704B243B1A6006E079
:102410006E4A243A126882436C4B243B1A60704720
:1024200039B16A4A203A12680243684B203B1A606D
:1024300006E0664A203A12688243644B203B1A60E9
:10244000704739B1614A1C3A126802435F4B1C3B2A
:102450001A6006E05D4A1C3A126882435B4B1C3BE3
:102460001A60704739B1594A143A12680243574BFF
:10247000143B1A6006E0554A143A12688243534BE3
:10248000143B1A60704739B1504A103A126802433F
:102490004E4B103B1A6006E04C4A103A12688243D9
:1024A0004A4B103B1A60704739B1484A1C321268D7
:1024B0000243464B1C331A6006E0444A1C32126841
:1024C0008243424B1C331A60704739B13F4A203275
:1024D000126802433D4B20331A6006E03B4A20322B
:1024E00012688243394B20331A60704739B1374A3A
:1024F000243212680243354B24331A6006E0334A13
:10250000243212688243314B24331A60704739B148
:102510002E4A2C32126802432C4B2C331A6006E0F0
:102520002A4A2C3212688243284B2C331A60704797
:1025300039B1264A303212680243244B30331A60D4
:1025400006E0224A303212688243204B30331A6050
:102550007047012808D11D493C31096841F0080144
:102560001A4A3C32116007E018493C31096821F0F1
:102570000801164A3C321160704739B1134A273AB4
:1025800012780243114B273B1A7006E00F4A273A94
:10259000127882430D4B273B1A7070470B4840302E
:1025A000006840F08070094940310860704701467A
:1025B0000020064A283A12680A4201D0012000E0B1
:1025C00000207047014926390870704734380240AE
:1025D00010B504469848844208D101210846FFF707
:1025E0000EFF00210120FFF70AFF76E093488442A6
:1025F00008D101210220FFF702FF00210220FFF78E
:10260000FEFE6AE08E48844208D101210420FFF7D3
:10261000F6FE00210420FFF7F2FE5EE089488442C6
:1026200008D101210820FFF7EAFE00210820FFF76A
:10263000E6FE52E08448844208D101211020FFF7D1
:10264000DEFE00211020FFF7DAFE46E07F488442DC
:1026500008D101212020FFF7D2FE00212020FFF722
:10266000CEFE3AE07A48844208D101214020FFF7AB
:10267000C6FE00214020FFF7C2FE2EE075488442CE
:1026800008D101218020FFF7BAFE00218020FFF74A
:10269000B6FE22E07048844208D101218015FFF780
:1026A000AEFE0021A015FFF7AAFE16E06B4884429B
:1026B00008D101214015FFF7A2FE00216015FFF7A8
:1026C0009EFE0AE06648844207D101210015FFF70B
:1026D00096FE00212015FFF792FE10BDF0B50A46C8
:1026E00000210023002400BF3DE0012505FA01F38D
:1026F000156805EA03049C4234D105684F0003269F
:10270000BE40B543056015794E00B54006683543B7
:1027100005601579012D02D01579022D16D1856835
:102720004F000326BE40B543856055794E00B54045
:10273000866835438560456801268E40B54345600F
:10274000456896798E40B6B235434560C5684F00FE
:102750000326BE40B543C560D5794E00B540C66876
:102760003543C560491C1029BFD3F0BD4FF6FF713A
:1027700001600021017141718171C171704708B51B
:102780004FF480320092009A0A430092009AC2618C
:10279000C161009AC261C2690092C269009208BD1B
:1027A0000246002013690B4201D0012000E0002006
:1027B00070470146086980B270470246002053699D
:1027C0000B4201D0012000E000207047014648691B
:1027D00080B2704701837047418370470AB101831B
:1027E00000E0418370474161704742694A4042615D
:1027F0007047F0B5002300244D07ED0E02FA05F3F3
:10280000CE1000F1200555F826504E07F70E0F2682
:10281000BE40B543CF1000F1200646F82750CE1039
:1028200000F1200555F8265045EA0304CE1000F1CA
:10283000200545F82640F0BD00000240000402409B
:1028400000080240000C0240001002400014024048
:1028500000180240001C02400020024000240240F8
:1028600000280240016821F001010160002101609F
:1028700041608160C160016121214161DA49884282
:1028800004D13D21D84A103A91608CE0D6491831E4
:10289000884205D14FF47461D34A103A916082E0C6
:1028A000D1493031884205D14FF47411CE4A103AE3
:1028B000916078E0CC494831884205D14FF074618D
:1028C000C94A103A91606EE0C7496031884204D12C
:1028D000C649C54A103AD16065E0C349783188429B
:1028E00004D1C349C04A103AD1605CE0BE4990317E
:1028F000884204D1BF49BC4A103AD16053E0BA497A
:10290000A831884205D14FF03D51B74A103AD16005
:1029100049E0B949884204D13D21B74A083A1160DB
:1029200041E0B5491831884205D14FF47461B24A8B
:10293000083A116037E0B0493031884205D14FF490
:102940007411AD4A083A11602DE0AB494831884214
:1029500005D14FF07461A84A083A116023E0A649F6
:102960006031884204D1A149A34A121F11601AE0C4
:10297000A1497831884204D19D499F4A121F1160B4
:1029800011E09D499031884204D19A499A4A121F18
:10299000116008E09849A831884204D14FF03D51B8
:1029A000954A121F1160704710B500220268934BC0
:1029B0001A40CC680B6823434C6923438C6923433A
:1029C000CC6923430C6A23434C6A23438C6A234318
:1029D0004C6B23438C6B23431A430260426922F001
:1029E0000702D1E90B3423431A4342610B69436068
:1029F0004B6883608B68C36010BD0021016041603B
:102A00008160C160016141618161C16101624162B6
:102A10008162C162016341638163704721B10268D1
:102A200042F00102026003E0026822F0010202604B
:102A3000704721B1026842F40042026003E002687C
:102A400022F400420260704721B1026842F0200285
:102A5000026003E0026822F02002026070474160D9
:102A600070470146486880B2704722B1036843F45A
:102A70000023036003E0036823F400230360016183
:102A8000704721B1026842F48022026003E00268CC
:102A900022F48022026070470AB1016100E0C16047
:102AA0007047014600200A6812F4002F01D001206F
:102AB00000E000207047014600200A6812F0010F74
:102AC00001D0012000E000207047014600204A6943
:102AD00002F03800704730B503460A460020002453
:102AE000454DAB4202D24049103901E0424910390C
:102AF00012F0005F01D04C6800E00C68404D2C40A3
:102B0000144201D0012000E0002030BD02463A4BC3
:102B10009A4202D23448103801E03748103811F098
:102B2000005F03D0364B0B40C36002E0344B0B40D8
:102B30008360704710B511F0800F09D022B143694E
:102B400043F08003436103E0436923F08003436162
:102B500080290BD02AB1036801F01E0423430360CF
:102B600004E0036801F01E04A343036010BD70B5C8
:102B700002460020002400251F4EB24202D21A4B0A
:102B8000103B01E01C4B103B1E4E314206D01E266E
:102B900006EAD124166806EA040502E0566906F042
:102BA000800511F0005F01D05C6800E01C68144EE5
:102BB00034400C4202D00DB1012000E0002070BD75
:102BC00002460D4B9A4202D20748103801E00A48EB
:102BD000103811F0005F03D0094B0B40C36002E0D6
:102BE000074B0B4083607047106002403D0000209F
:102BF000400F002000003D20106402403F801CF088
:102C00007D0F7D0F3C0F3C0F10B500BF40F22441FB
:102C10006248FEF713FB00284BD060480088C4B21E
:102C20005E48001D0088C4B25D480078401C5C49C5
:102C3000087000215B48FFF7F1FE5B48008810F444
:102C4000004F0DD15748FFF70CFF40F2BB51081A57
:102C500055490880084602885449554801F06CF8E7
:102C600054495048FFF752FF40F2BB514D48FFF71F
:102C7000F6FE01214B48FFF7D1FE4B480088A0F536
:102C8000A061BB390FD14748FFF7C8FE4949454805
:102C9000FFF73CFF40F2BB514248FFF7E0FE012145
:102CA0004048FFF7BBFE4048008840F400403E49E2
:102CB000088010BD10B588B0044601210820FFF738
:102CC00033FB01214804FFF778FB3448FEF7D6F8C0
:102CD000072205213848FFF78CFD072206213648D8
:102CE000FFF787FD6020059002208DF818008DF811
:102CF000190000208DF81A0001208DF81B0005A98D
:102D00002D48FFF7EBFC01940020ADF80800ADF86A
:102D10000A00ADF80C00ADF810000C20ADF80E0064
:102D200001A91E48FEF711F901211C48FEF795F98B
:102D3000012240F224411948FEF745FA26208DF879
:102D40001C0002208DF81D008DF81E0001208DF85A
:102D50001F0007A8FEF725F800201349088008B0D7
:102D600010BD0FB438B505A800901448009A049916
:102D700001F0BEFB00200090104801F013F884B26F
:102D800022460E490E4800F0D7FF2146054818306C
:102D900000F0B6F838BC5DF814FB000000440040B9
:102DA000600000208860024062000020C40D002006
:102DB0009C07002000080020000C0240380700207B
:102DC000600D00207FB505460C4601210220FFF76B
:102DD000F4FA0295ADF804400020ADF80600ADF815
:102DE0000C0001A91E48FEF720FB012211461C48D9
:102DF000FEF7BCFF01211A48FEF7A0FB1D208DF84D
:102E0000000001208DF8010003208DF80200012050
:102E10008DF803006846FDF7C4FF7FBD10B50121A2
:102E20000F48FEF7BAFF012815D1032010E0411E1C
:102E30000C4A515C51B1411E515CFF2906D0411E24
:102E4000515C491ECAB2411E064B5A54411EC8B2BB
:102E50000028ECDC00BF01210148FEF7AFFF10BDE8
:102E600000040040640000202DE9F0438FB00446C8
:102E70000D4616461F46DDE916986F48844204D970
:102E800001218805FFF750FA03E001214805FFF70B
:102E90004BFA2046FFF7E6FC00BF2046FFF70BFE8B
:102EA0000028FAD1009501960297B8F1010F02D1DE
:102EB0004020039001E000200390CDF81090002006
:102EC00005904FF4806006900020079008900990CC
:102ED0004FF480300A9000200B9003200C900020CB
:102EE0000D900E9069462046FFF75EFDB8F1000F89
:102EF00003D101212046FFF791FD0FB0BDE8F0831B
:102F000070B504460D4600212046FFF787FD00BF3F
:102F10002046FFF7D0FD0028FAD129462046FFF7CA
:102F20009EFD01212046FFF779FD70BD08B51120F7
:102F30008DF8000000208DF8010001208DF80200BE
:102F40008DF803006846FDF72CFF012210213B4855
:102F5000FFF7F0FD08BD10B539493848FFF7BBFD54
:102F600018B137493548FFF7D1FD10BD00B52DED3B
:102F7000048B83B09FED330AB0EE408A01206421B8
:102F8000314B324ACDE90010C1062C484838FFF7D2
:102F90006BFF2D482EA10A680260898881802EA0CF
:102FA00001F082FA012280212848001FFEF702F971
:102FB000642122484838FFF7A3FF36E04FF0C051A4
:102FC0001E484838FFF787FD30B14FF0C0511B480D
:102FD0004838FFF79BFD29E018484838FFF741FDC6
:102FE00000EE100AB8EE400AB0EE408A9FED1E0ACD
:102FF000C8EE000AB7EE000A30EE600AB0EE408A72
:103000009FED190A28EE000AB0EE408A18EE100A69
:1030100000F0FFFE41EC100BB0EE409AF0EE609A2B
:1030200053EC192B11A001F03FFAC7E700BF03B022
:10303000BDEC048B00BD000000640240A0600240B3
:103040000000202000000000600D00200448004027
:10305000746573740D0A00000D0A444D412044410B
:1030600054413A0D0A0000000000C842252E326685
:103070000D0A0000014600BF704700BF4A4A12888F
:1030800012F0400FFAD0C2B2474B1B1D1A80704796
:1030900010B588B0044601210420FFF745F901214D
:1030A0008804FFF78AF907220A214048FFF7A1FBAD
:1030B00007220B213D48FFF79CFB4FF44060069030
:1030C00002208DF81C008DF81D0000208DF81E00D8
:1030D00001208DF81F0006A93448FFF7FFFA02947B
:1030E0000020ADF80C00ADF80E00ADF81000ADF802
:1030F00014000C20ADF8120002A92B48FDF725FFA3
:1031000001212948FDF7A9FF012240F22441264868
:10311000FEF759F8012240F225512348FEF753F8F3
:1031200027208DF8040003208DF805008DF8060097
:1031300001208DF8070001A8FDF733FE08B010BD8F
:1031400070B500BF40F225511748FEF777F8B0B1CF
:103150001548FDF7B1FFC4B215480088322808DAD7
:10316000134801880088401C114A108011484454BB
:1031700005E00F48008840F400400D49088040F207
:1031800024410948FEF75AF860B107480088C5B2E3
:103190000548001D0088C5B20548008840F400407D
:1031A0000349088070BD000000480040000802404C
:1031B000680000207F13002010B504466FF0040063
:1031C000FDF73DFEE11704EB5171C1F3C701384A29
:1031D00011701046007800EB4001C1EBC0104FF6B3
:1031E000FF7101EAC0003349088010BD0146304A32
:1031F00012784A434FF0E0235A6100229A611A463E
:10320000126942F001021A6100BF4FF0E02210691A
:1032100010F0010F02D010F4803FF6D04FF0E02202
:10322000126922F001024FF0E0231A6100229A6134
:10323000704701461F4A12884A434FF0E0235A6103
:1032400000229A611A46126942F001021A6100BF17
:103250004FF0E022106910F0010F02D010F4803F0F
:10326000F6D04FF0E022126922F001024FF0E02385
:103270001A6100229A61704770B504464FF40770D6
:1032800094FBF0F0C6B24FF4077094FBF0F100FB32
:10329000114085B205E04FF40770FFF7CAFF701EBA
:1032A000C6B2002EF7D115B12846FFF7C2FF70BD98
:1032B000700000207200002070B503460C4603E049
:1032C00014F8015B03F8015B1500A2F10102F7D1CC
:1032D00070BD30B5034601E003F8011B1400A2F1F4
:1032E0000102F9D130BD10B50446794951F82410D6
:1032F0004A00784951F824000021FFF7EAFF764997
:1033000051F8242073490C3951F824000021FFF7AB
:10331000E0FF01216F480C30015510BD10B501468A
:103320000023002207E06B4850F8210030F812001B
:1033300000B15B1C521C664850F821009042F2D844
:1033400064205843624C54F82140B0FBF4F0C0B202
:1033500010BD2DE9F04704460F460025A9465D48FB
:103360000C30005D20B95B4814380168204688475E
:103370001FB94FF0FF30BDE8F087584850F82400DF
:10338000B7FBF0F6554850F82400B7FBF0F100FB0E
:10339000117000B1761C4E4850F82400451E20E004
:1033A0004C4850F8240030F8150010B909F1010913
:1033B00001E04FF00009B14512D14FF0000808E0DC
:1033C000444850F8240005EB080220F8126008F188
:1033D0000108B045F4D3414850F824006843CAE7D7
:1033E0006D1E002DDCDA4FF0FF30C4E72DE9F0410F
:1033F00004460E4637480C30005D38B9354814385D
:103400000168204688470120BDE8F081324850F825
:103410002400B04217D9314850F82400B6FBF0F12F
:103420002C4850F8240030F81120002507E0002334
:10343000284850F824004F1920F817306D1C954289
:10344000F5DB0020E0E70220DEE770B505460C461C
:1034500004B970BD1F480C3850F82500261A3146B3
:103460002846FFF7C3FF00BFF3E770B504460E46DA
:1034700031462046FFF76DFF0546681C00D170BD40
:1034800014480C3850F824002844F8E72DE9F0419E
:1034900004460F46164631462046FFF75AFF0546BA
:1034A000681C01D1BDE8F0810A490C3951F824109B
:1034B000481932463946FFF7FFFE39462046FFF7E6
:1034C000C4FF04480C3850F824002844EAE7000000
:1034D000E84D000888000020004E0008F44D000868
:1034E00010B500230B80002208E0835C303B0C8881
:1034F00004EB840403EB44030B80521C835C002B1D
:10350000F3D110BD1CB501210820FEF70DFF4FF4CB
:10351000C040009001208DF8040000208DF80600C6
:1035200003208DF8050001208DF807006946FE484C
:10353000FFF7D4F84FF4C041FB48FFF74BF91CBD2F
:103540001CB501210846FEF7EFFE01200090002087
:103550008DF804008DF8060003208DF80500022088
:103560008DF807006946F048FFF7B8F81CBD10B5A4
:10357000EE480078332812D0362820D01FE04FF4D0
:103580000051E948FFF728F94FF48041E648FFF77A
:1035900021F900BF3320E5490870322010BD4FF4F7
:1035A0000051E148FFF716F94FF48041DE48FFF77C
:1035B00013F900BF3620DD4908703220EEE7DEE760
:1035C00010B50446DA4800784F2827D050282BD071
:1035D0009C2875D020210020FFF747FFD5490860BF
:1035E00020210020FFF741FFD34908600021D34884
:1035F000A0F8BA15601ED24A52F82010D1A000F0EF
:1036000053FF2FE10121D248FFF7CAF8012817D153
:1036100000BF4F20C6490870C82010BD00BF502011
:10362000C3490870C820F8E70121C948FFF7B8F876
:10363000012802D1C749087002E00020C54908707E
:1036400017E0C5A000F030FFFDF79FF838B9C7A01C
:1036500000F02AFF0221B94880F8BD1506E0C8A095
:1036600000F022FF0521B54880F8BD150020B949BA
:103670000870B84800780128E3D0C64800880121C6
:10368000B1EBE03F7ED1C4A0FCF79AFD002837D013
:10369000C3A0FCF795FD38B10521A84880F8BD15F9
:1036A000C2A000F001FF28E0C4A0FCF789FD40B1F2
:1036B0000221A24880F8BD15C2A000F0F5FE1CE072
:1036C0008EE00321C2480078303800EB400202EB64
:1036D000C002C04800F81210BD480178BEA000F03A
:1036E000E3FEBB4909783039C8B21422C1A1FDF705
:1036F000B6F80020C449088000BF0020A549088012
:10370000C2A0FCF75DFD90B10421B14800783038CB
:1037100000EB400202EBC002AE4800F81210AC48C9
:103720000178BCA000F0C0FE00209A490880C0A02B
:10373000FCF746FD002846D00121804880F8B815E6
:10374000BCA1A34800F01CFB7A490860002009686E
:103750008870B9A177480068C01C00F011FB764959
:1037600008600020096808707248006840783038A6
:10377000724908706F480068C01C00F03DFB81B2C0
:103780006E4800E026E0A0F8B615B0F8B6256A4805
:103790000168491C6948401C00F0CEFA00216748C6
:1037A000B0F8B625401C8154401EB0F8BA15B0F8E8
:1037B000B605084481B26148A0F8BA1500207549E1
:1037C0000880914908809DA0FCF7FAFC10B1002008
:1037D0007049088000BF9C205549087001201CE7F3
:1037E0006C48008800283DD1874800884EF660214B
:1037F000884213DA84480088401C834908800846C0
:10380000008840F6B83190FBF1F201FB120000286D
:1038100028D100214948A0F8BA1523E0FCF71BFE87
:103820008849087008460078022802D186A000F076
:103830003BFE84480078032802D18AA000F034FEC1
:1038400080480078042802D18DA000F02DFE7D482C
:103850000078052802D18FA000F026FE00206A49DA
:10386000088000E0CEE600BF00BF00BF0020D4E625
:1038700010B58C480078CE283BD03AE08A480088C2
:1038800010F4004F2FD000208749088087A1884876
:1038900000F090FA8749086084A1002000F08AFABD
:1038A0008549086081A1002000F084FA83490860FE
:1038B000834982480068FFF713FE7E48006800785D
:1038C000512802D1FCF7B2FD07E07D4802887A4812
:1038D000016878480068FCF789FC0020FCF750FD7F
:1038E00000202C49088000BFCE206E4908700120BE
:1038F00010BDC3E7A820FFF75FFC4FF4A060FDF701
:103900004BFAFFF7FFFDFFF71BFE4FF4E130FFF727
:10391000BFFB42F2CF016320FFF754FAFCF7B7FC7C
:10392000684869A10268D1E0000C024098000020BC
:10393000A80000209C000020A0000020D80000204B
:10394000240000202573B2E2CAD40D0A0000000052
:1039500000000240A7000020C5E4D6C3776966696D
:10396000D5CBBAC5C3DCC2EB0D0A0000736D617222
:1039700074636F6E666967B3C9B9A60D0A0000006B
:10398000736D617274636F6E666967CAA7B0DC0D90
:103990000A00000062000020434F4E4E4543540091
:1039A000444953434F4E4E4543540000776966697E
:1039B000C1ACBDD3B6CFBFAA0D0A000057494649D6
:1039C0000000000077696669C1ACBDD30D0A000034
:1039D0009C070020CA060020BFCDBBA7B6CB25633D
:1039E00020C1ACC9CF544350B7FECEF1C6F70D0A83
:1039F000000000007463705F7365727665725F74B7
:103A00006573740D0A000000A4000020434C4F535E
:103A100045440000BFCDBBA7B6CB256320B6CFBFC2
:103A2000AA544350B7FECEF1C6F70D0A00000000BD
:103A30002B4950442C0000003A0000000D0A4F4B67
:103A40000D0A0000A6000020CDF8C2E7D5FDB3A303
:103A50002CCEB4BDA8C1A2544350C1ACBDD30D0AF5
:103A6000000000003130B7D6D6D3CEB4CAD5B5BD2C
:103A7000BFCDBBA7B6CBD0C5CFA20D0A00000000BA
:103A80003130B7D6D6D3CEDE544350C1ACBDD30D02
:103A90000A000000CEB4C1ACBDD3CDF8C2E70D0A18
:103AA00000000000BA000020680000202F00000085
:103AB0007F130020AC000020B0000020B4000020E4
:103AC000B800002000000020323430000220FCF753
:103AD000CFFF19E00D48007828B90320FFF770FDEB
:103AE0000A49087010E00948407820B9FFF73FFD07
:103AF0000649487008E00548807820B9FFF7B8FE0D
:103B00000249887000E000BFE4E700006400002084
:103B1000704700BFFEE700BFFEE700BFFEE700BF43
:103B2000FEE7704770477047704700000CB50020F3
:103B3000019000907548006840F480307349086037
:103B400000BF7248006800F4003000900198401CEB
:103B50000190009818B90198B0F5A04FF1D16B48C9
:103B6000006810F4003F02D00120009001E0002026
:103B700000900098012845D164484030006840F02A
:103B800080506249403108606148006840F440401C
:103B90005F4908605D48083000685C49083108608A
:103BA0000846006840F4004008600846006840F499
:103BB000A05008605748091F0860081F006840F0BF
:103BC0008070091F086000BF5048006810F0007F37
:103BD000FAD040F20570504908604C48083000683F
:103BE00020F003004949083108600846006840F0A9
:103BF0000200086000BF45480830006800F00C0073
:103C00000828F8D10CBD10B54448006840F4700095
:103C1000424908603D48006840F001003B490860A7
:103C200000203A4908310860384800683C4908409B
:103C3000364908603B48091D0860081F006820F4E9
:103C40008020091F0860002030490C310860FFF710
:103C50006DFF4FF0006031498039086010BD70B5CC
:103C600000200022022300240221284D08352D685F
:103C700005F00C0020B1042806D0082834D107E054
:103C8000294D2A4E356033E0294D284E35602FE00E
:103C90001E4D2D1D2D68C5F380541C4D2D1D2D6806
:103CA00005F03F0154B1224DB5FBF1F5174E361D1D
:103CB0003668C6F3881605FB06F209E01A4DB5FB17
:103CC000F1F5124E361D3668C6F3881605FB06F26E
:103CD0000E4D2D1D2D68C5F301456D1C6B00B2FB0B
:103CE000F3F5124E356003E00F4D104E356000BF06
:103CF00000BF064D08352D68C5F303150D4E705DE8
:103D00000A4D2D68C540094E356070BD003802402F
:103D10000070004008544007003C024088ED00E07D
:103D2000FFFFF6FE103000240024F400BC00002049
:103D300000127A00C000002040EA01039B0703D074
:103D400009E008C9121F08C0042AFAD203E011F8DA
:103D5000013B00F8013B521EF9D27047D2B201E09C
:103D600000F8012B491EFBD270470022F6E710B580
:103D700013460A4604461946FFF7F0FF204610BDD9
:103D800030B505462A460B4612F8010B13F8014BD5
:103D900008B1A042F8D01CB1002802D06D1CF1E798
:103DA000284630BD421C10F8011B0029FBD1801AA7
:103DB0007047000070B50F4D00B92868002412E06C
:103DC0000A4602E09E4203D0521C1378002BF9D120
:103DD000DAB2224305D02BB124B1002100F8011B37
:103DE00004E00446401C0678002EE9D128602046F5
:103DF00070BD0000D000002070B5064600F08AFBC0
:103E0000046805460A220021304600F05CF82C6068
:103E100070BD00F0004230F000400AD0C10D01F545
:103E20006071C0F3160042EA0151C2084007114315
:103E3000704700200146704730B50B460146002010
:103E40002022012409E021FA02F59D4205D303FA5C
:103E500002F5491B04FA02F52844151EA2F10102DD
:103E6000F1DC30BD2DE9F05F0546002092469B460F
:103E700088460646814640241BE028464146474680
:103E8000224600F02EFA53465A46C01A914110D3EA
:103E900011461846224600F015FA2D1A67EB010864
:103EA0004F4622460120002100F00CFA17EB0009D2
:103EB0004E41201EA4F10104DFDC484631462A466B
:103EC0004346BDE8F09F2DE9F04791460F468046F6
:103ED0000446002614F8015B2DB100F025FA0068B5
:103EE000405DC007F6D12B2D02D02D2D18D0641EB9
:103EF0004A463946204600F01BFA27B13968A142EC
:103F000001D1C7F8008071054FF002040BD5404283
:103F1000002803DD00F0FEFA0460A007BDE8F0878A
:103F200046F48066E4E70028F8DA00F0F3FA04606B
:103F30006FF00040F2E72DE9FE4F804681EA030072
:103F4000C00F0C46009021F0004123F00045B8EB73
:103F50000200A94105D24046214690461C460B4628
:103F6000024623F00040104304D14046214603B0EE
:103F7000BDE8F08F270DC7F30A00C3F30A51029082
:103F8000401A0190402866DAC3F3130040F4801B06
:103F90000098924620B10023D2EB030A63EB0B0B8F
:103FA00001985946C0F14002504600F08BF9064690
:103FB0000D4650465946019A00F0A3F910EB08004F
:103FC0006141002487EA115284EAE7731A433BD027
:103FD000009A3AB3019A012A4FEA075210DC001BFB
:103FE00061EB02014FF0004202EA0752CDE90042C4
:103FF000001C41F5801132462B4600F0F5F9B6E77A
:10400000001B61EB0201001C41F5801300185B41AD
:104010002018A2F5001747EB030140EAD570B61946
:104020006D4111E06D084FEA360645EAC0754FEA6A
:104030000752001B61EB0201001C41F58011490889
:104040004FEA30000019514132462B4603B0BDE81B
:10405000F04F00F0BCB90098012240000023D0EBE3
:10406000020263EBE073009821464FEAE074B8EB7C
:10407000000061EB0401E9E783F000435BE781F0B6
:10408000004158E72DE9FE4F81EA030404F00044A3
:1040900021F0004100944FF0000B23F0004350EA60
:1040A000010402D052EA030404D10020014603B007
:1040B000BDE8F08FC3F30A54C1F30A552C44A4F2AF
:1040C000F3340194A0FB0254C1F3130141F48011B5
:1040D000C3F3130343F4801301FB024400FB034EBC
:1040E000840A970A44EA815447EA8357A4FB076885
:1040F00002958D0A05FB07854FEA932C04FB0C54AF
:104100002705029D4FEA065847EA1637B5EB080522
:104110006EEB070C870E920E47EA811742EA831274
:10412000A7FB0201B6EB0B0164EB00042B0D43EA85
:104130000C335E1844EB1C50DA465146E7FB020193
:10414000C5F313044FEA0B3343EA14534FEA043226
:10415000019C43EA0603A4F10C040294009CCDE9FF
:1041600000B400F041F9A2E72DE9F04D81EA030423
:1041700004F0004B21F0004514464FF0000A23F0F4
:10418000004150EA050220D054EA01021DD0C5F3D7
:104190000A570246C5F31303C1F31300C1F30A56CD
:1041A00040F4801543F48013A7EB0608101BD64695
:1041B00008F2FD3873EB050002D308F1010801E0B5
:1041C00092185B41B8F1000F03DA00200146BDE808
:1041D000F08D00204FF48011064684460EE0171B38
:1041E00073EB050705D3121B63EB050306434CEA8B
:1041F000010C49084FEA300092185B4150EA010770
:10420000EDD152EA030012D082EA040083EA0501EC
:10421000084303D100224FF0004308E0101BAB41DC
:1042200002D20122002302E06FF0010253101AEBC8
:1042300006004CEB085110EB0A0041EB0B01BDE806
:10424000F04D00F0C4B8C1F30A52C1F3130140F2BB
:10425000FF3341F480119A4202DA00200146704790
:1042600040F233439A42A2F2334202DC524200F05F
:1042700038B800F027B8000030B5002904DB4FF053
:104280000044404264EB0101002B04DB4FF000448A
:10429000524264EB0303994208BF904230BD0000D4
:1042A000064C074D06E0E06840F0010394E8070083
:1042B00098471034AC42F6D3FBF76AFF144F00085E
:1042C000344F0008202A04DB203A00FA02F10020D3
:1042D00070479140C2F1200320FA03F31943904044
:1042E0007047202A04DB203A21FA02F000217047AF
:1042F00021FA02F3D040C2F120029140084319464E
:104300007047202A06DBCB17203A41FA02F043EA35
:10431000E07306E041FA02F3D040C2F1200291407E
:10432000084319467047000000487047904E000847
:104330002DE9F05F82460078002715468B460AF18A
:104340000104B946302801D09DB113E014F8010BE7
:104350000127782803D0582801D045B10AE00DB1D3
:10436000102D07D10027102514F8010B02E00825B5
:1043700000E00A250026B0460EE005FB080005FB1C
:1043800006F1012701EB10461FFA80F8B6F5803FD1
:1043900000D3B94614F8010B294600F077F800283D
:1043A000EBDABBF1000F05D00FB1641E00E05446FC
:1043B000CBF80040B9F1000F06D000F0ABF80221B5
:1043C0000160C81EBDE8F09F48EA0640FAE710B554
:1043D000002B08DA401C41F1000192185B411A439E
:1043E00001D120F0010010BD2DE9F04D92469B4611
:1043F00011B1B1FA81F202E0B0FA80F220329046B7
:10440000FFF760FF04460F4640EA0A0041EA0B014D
:1044100053465A46084303D120463946BDE8F08D3D
:10442000114653EA010015D0C8F140025046FFF78B
:1044300058FF05460E46504659464246FFF742FF92
:10444000084301D0012000E00020054346EAE07661
:104450002C4337430A984FEA4453A0EB08004FEA35
:10446000D4240A304FF0000244EA47544FEAD725DB
:1044700002D500200146D1E7010510196941DDE9A7
:10448000084500196941BDE8F04DA0E73A2800D27F
:10449000303820F02002412A01D3A2F137008842AF
:1044A00001D34FF0FF3070470FB4054B10B503A98F
:1044B000044A029800F0F0F810BC5DF814FB00000C
:1044C0007B3000086C0000200FB4084B10B504A925
:1044D00002AA039800F0E0F8044602A9002000F0C8
:1044E0007EFC204610BC5DF814FB0000DF4D000888
:1044F00037B514460846064B6A46214600F0CCF80C
:1045000004466946002000F06AFC20463EBD0000DB
:10451000DF4D000800487047D400002002E008C8C2
:10452000121F08C1002AFAD170477047002001E02D
:1045300001C1121F002AFBD1704700002DE9FF5F67
:10454000DDE90220010DDDF838B0024310D10F98EB
:1045500001244CA2012808D0002100980F9BC0E93B
:104560000021C0E90243BDE8FF9F6FEA0B01F4E7B9
:10457000A1F2FF3144F6105041430D140F98012869
:104580000ED0A5EB0B00401C4FF000043E4EDFF8B0
:10459000FC90B0F1000AA04605DACAF1000717E066
:1045A000CBF10000F0E7074612E0F80707D02246FB
:1045B000334640464946FFF765FD80468946224618
:1045C000334610461946FFF75DFD04460E467F1040
:1045D000002FEAD1DDE90201BAF1000F42464B4655
:1045E00002DAFFF74FFD01E0FFF7BEFD04460E467D
:1045F0000022274BFFF740FE03D84FF0FF30014663
:1046000007E00022234B20463146FFF794FCFFF7DA
:104610001AFE102409E0002C0ADB0A220023FFF70F
:1046200021FC019B30321A55641E50EA0102F2D17E
:10463000641C019AC4F1110314440F9A012A09D091
:104640000122084301D15B450FDD4FF0000205F167
:1046500001050DE0084303D1A3EB0B056D1E09E036
:1046600000204FF0110B0F9088E701DA00226D1E39
:10467000002A83D000980F99C0E90231C0E90045B3
:1046800071E7000030000000000024400000F03F0F
:104690000000F0430000E03F2DE9FF4F95B09B463E
:1046A00089460646002512E2252878D10024761C8A
:1046B000F94A2746012105943378203B01FA03F09B
:1046C000104202D00443761CF6E730782A2811D035
:1046D0006FF02F033078A0F13002092A16D8059A1E
:1046E00044F0020402EB820203EB42021044761C07
:1046F0000590EFE759F8042B0592002A03DA50429F
:1047000044F40054059044F00204761C30782E28BE
:1047100016D116F8010F44F004042A280DD06FF0CA
:104720002F023078A0F13003092B09D807EB87035B
:1047300002EB4303C718761CF3E759F8047B761C99
:1047400030786C280FD006DC4C2817D068280DD0A4
:104750006A2814D104E0742810D07A280FD10DE013
:1047600044F400140AE044F4801401E044F44014DA
:104770007278824202D1761C04F58014761C30785F
:1047800066280BD013DC582877D009DC002875D0B8
:104790004528F6D04628F4D047281AD19FE118E0E2
:1047A000632835D0642879D0652812D197E1702824
:1047B00073D008DC6728F1D069286FD06E280DD03F
:1047C0006F2806D1B5E073282CD0752875D07828CD
:1047D00074D05A46179990476D1C76E1C4F3025085
:1047E000022809D003280DD0D9F8001004280DD0D4
:1047F0000D6009F1040968E1D9F80010EA17C1E970
:104800000052F6E7D9F800100D80F2E70D70F0E7DE
:1048100019F8041B8DF8001000208DF80100EA46FD
:10482000012003E059F804AB4FF0FF3061074FF06F
:10483000000102D40DE008F101018846B9420FDA07
:104840008045F8DB1AF808100029F4D108E008F1D7
:10485000010188468142FADB1AF808100029F6D1D6
:1048600005985B46A0EB080721463846179A00F0EA
:104870009EFA284400EB080507E04DE02BE10DE02F
:104880001AF8010B5A4617999047B8F10108F7D268
:104890005B4621463846179A14E142E00A2200920C
:1048A000C4F302524FF0000A022A08D059F804CB90
:1048B000032A4FEAEC710AD00DE029E02AE009F161
:1048C000070121F00702F2E802C1914609E00FFA60
:1048D0008CFC4FEAEC71042A03D14FFA8CFC4FEAAE
:1048E000EC71002907DA0A460021DCF1000C61EBCB
:1048F00002012D2202E0220504D52B228DF804208E
:10490000012203E0E20701D02022F7E7904653E0BE
:104910000A2102E010220DE010214FF0000A009160
:104920000BE010224FF0000A44F004040827009224
:1049300003E008224FF0000A0092C4F30252022A58
:1049400005D059F804CB0021032A08D009E009F169
:10495000070121F00702F2E802C1914605E01FFAC3
:104960008CFC042A01D10CF0FF0C4FF00008220748
:1049700022D5702827D0009B83F0100353EA0A0346
:1049800009D15CEA010206D030228DF804208DF8AE
:10499000050002229046009B83F0080353EA0A03B5
:1049A0000AD15CEA010201D1620705D530228DF8F7
:1049B00004204FF001087F1E582809D037A003902B
:1049C0000EA8029013E040228DF804200122E1E7B6
:1049D00037A0F4E753466046009AFFF743FA84464F
:1049E0000398825C0298A0F10100029002705CEAD8
:1049F0000100EFD1029806A9A1EB000000F1200A06
:104A0000600702D524F4803400E00127574502DD19
:104A1000A7EB0A0000E0002000EB0A0100900598D7
:104A20004144A0EB01000590E00306D45B4621461B
:104A3000179A059800F0BBF90544002706E001A885
:104A40005A46C05D179990476D1C7F1C4745F6DBA1
:104A5000E0030CD55B462146179A059800F0A7F9AC
:104A6000054404E030205A46179990476D1C009980
:104A7000481E00900029F5DC08E0029802995A4689
:104A80000078491C0291179990476D1CBAF10001FA
:104A9000AAF1010AF1DC6BE109280100303132335F
:104AA000343536373839616263646566000000006A
:104AB0003031323334353637383941424344454654
:104AC0000000000000F060F9054406F101063078AE
:104AD00000287FF4E9AD19B02846BDE8F08F6207E1
:104AE00000D4062709F1070222F0070CFCE8022394
:104AF000E14603F000485FEA080C02D00FF27C2C7C
:104B00000DE05FEA045C02D50FF2742C07E05FEA67
:104B1000C47C02D00FF26C2C01E0AFF2700C4FF0AD
:104B2000FF3823F00043CDF850C065280CD006DCD8
:104B3000452809D046281DD047283ED13EE06628AA
:104B400018D0672839D139E00021112F01DB11205D
:104B500000E0781CCDE9000106A90EA8FFF7EEFCE5
:104B6000DDE90F010E9A03910021009207F1010A7D
:104B700004914EE04FF000400097CDE9011006A9E6
:104B80000EA8FFF7DBFCDDE90F0203920E9B1199E3
:104B90000022DDF80CA00093049219B907F101017D
:104BA00000EB010AB7EB0A0004D4C0F1FF3007F1B3
:104BB000010A0490AAEB0700019046E0012F00DAF9
:104BC00001270021112F01DD112000E03846CDE939
:104BD000000106A90EA8FFF7B1FCDDE90F010E9A4E
:104BE0000391002104910092BA4621070CD4039945
:104BF000514500DA8A46BAF1010F05DD009AAAF1A3
:104C00000101515C302908D0B84202DA10F1040FDA
:104C100006DA0121CDE9011017E0AAF10101E9E767
:104C2000002805DC049901440491AAEB000102E08C
:104C3000411C514500DD8A460499A0EB010000F1BA
:104C4000010001904FF000400290200704D4019829
:104C5000504501DBCDF8048000208DF84F0002980C
:104C60000DF14F07B0F1004F25D02B200E90029888
:104C70004FF0020800280CDA404202902D200E90DE
:104C800007E00A210298FFF7D7F83031029007F8C1
:104C9000011DB8F10001A8F10108F2DC029800281A
:104CA000EFD1791E0E980870307800F0200040F0A7
:104CB000450007F8020D12A8A0EB070000F1070855
:104CC0001498007800B1012000EB0A01019801EB73
:104CD000E07105984144A0EB0100A0F101000590AE
:104CE000E00306D45B462146179A059800F05FF86A
:104CF00005441498007820B15A461799904705F159
:104D00000105E00323D55B462146179A059800F07C
:104D10004EF805441BE00498002807DBDDE9030199
:104D2000884203DD0098405C179901E01799302014
:104D30005A46904704986D1C401C04900198401EF0
:104D4000019004D12E205A46179990476D1CBAF154
:104D50000001AAF1010ADEDC05E017F8010B5A4652
:104D6000179990476D1CB8F10001A8F10108F4DC17
:104D70005B462146179A0598A4E600002D00000026
:104D80002B000000200000002DE9F0410446002522
:104D90001E461746880405D406E039462020B04751
:104DA00005F10105641EF8D52846BDE8F0812DE91E
:104DB000F041044600251E469046C80301D5302721
:104DC00000E02027880405D506E041463846B04774
:104DD00005F10105641EF8D52846BDE8F0810A6892
:104DE000531C0B6010707047800C000000780000AE
:104DF00080070000200000002000000020000000CC
:104E00000090010000000F0000F000000040404052
:104E1000404040404040414141414140404040408D
:104E20004040404040404040404040404005020239
:104E300002020202020202020202020202202020F8
:104E40002020202020202002020202020202909054
:104E50009090909010101010101010101010101052
:104E600010101010101010100202020202028888A6
:104E700088888888080808080808080808080808B2
:104E8000080808080808080802020202400000009A
:104E90000D4E00083931303000313836393138366E
:104EA000393037300054502D4C494E4B5F6E796588
:104EB000617231005354410045535031324600571E
:104EC00050415F575041325F50534B005750415F44
:104ED00050534B005354412B415000574550005400
:104EE00043505F534552564552005443505F434C24
:104EF00049454E54005544505F434C49454E54007B
:104F00006F70656E00777061777061325F61657395
:104F100000000000344F000800000020D80000000E
:104F20001C4500080C500008D8000020E8BF010014
:104F30002C450008944E0008A54E0008054F0008B7
:104F4000994E0008B84E0008104F0008B44E0008F3
:104F5000D84E0008D44E0008F54E0008EA4E00086E
:104F6000DF4E0008004F0008DB4E0008CC4E000862
:104F7000C34E0008BF4E0008000000000000000003
:104F8000000000000000000001020304010203040D
:104F900006070809000000000000000000000000F3
:104FA0000000000000000000E73200081D33000888
:104FB000C01300200000006800000010C0A3012002
:104FC00000000F6800F0001000000000000000006A
:104FD00000000000000000000000000000000000D1
:104FE00000000000000000000000000000000000C1
:104FF000007A030A00000000000000000102030420
:0C50000006070809000000000000000086
:040000050800018965
:00000001FF
